:020000040800F2
:10100000900D0020AD11000859160008291600089F
:101010005516000851150008651900080000000069
:10102000000000000000000000000000C9160008D9
:1010300025160008000000005D160008CD16000807
:10104000C7110008C7110008C7110008C711000820
:10105000C7110008C7110008C7110008C711000810
:10106000000000005515000881150008BD15000896
:10107000F5130008C7110008C711000800000000A0
:10108000B1180008C711000800000000751800081A
:1010900089180008A1180008C7110008C711000826
:1010A000C7110008C7110008C7110008611900081E
:1010B000C711000800000000000000000000000050
:1010C000C711000800000000C711000800F002F876
:1010D00000F05CF80AA090E8000C82448344AAF176
:1010E0000107DA4501D100F051F8AFF2090EBAE874
:1010F0000F0013F0010F18BFFB1A43F0010318474C
:10110000E45E0000045F00000A444FF0000C10F899
:10111000013B13F0070408BF10F8014B1D1108BF75
:1011200010F8015B641E05D010F8016B641E01F815
:10113000016BF9D113F0080F1EBF10F8014BAD1C65
:101140000C1B09D16D1E58BF01F801CBFAD505E083
:1011500014F8016B01F8016B6D1EF9D59142D6D3DD
:10116000704700000023002400250026103A28BF05
:1011700078C1FBD8520728BF30C148BF0B60704709
:101180001FB505F03FFD1FBD10B510BD00F060F8A4
:101190001146FFF7F5FF02F085FD00F097F803B464
:1011A000FFF7F2FF03BC00F0FDF80000094880479C
:1011B00009480047FEE7FEE7FEE7FEE7FEE7FEE739
:1011C000FEE7FEE7FEE7FEE704480549054A064B51
:1011D00070470000D1160008CD10000890070020CD
:1011E000900D002090090020900900204FF000028F
:1011F00000B5134694469646203922BFA0E80C500D
:10120000A0E80C50B1F12001BFF4F7AF090728BFE7
:10121000A0E80C5048BF0CC05DF804EB890028BF63
:1012200040F8042B08BF704748BF20F8022B11F08C
:10123000804F18BF00F8012B704770477047704708
:1012400000487047C403002000487047C0030020D6
:101250007546FFF7F9FFAE4605006946534620F094
:101260000700854618B020B5FFF7AEFFBDE8204067
:101270004FF000064FF000074FF000084FF0000B52
:10128000AC46ACE8C009ACE8C009ACE8C009ACE8C1
:10129000C00921F007018D46704700001FB584B0DA
:1012A00000200A9C06AB04AA02A90094AFF30080B8
:1012B00018B1DDE9020108B010BD0348204000F07C
:1012C0000EF800200146F6E70000207C10B5044629
:1012D000AFF300802046BDE81040FFF760BF10B5B7
:1012E00000F00AF8BDE81040AFF30080002801D0FC
:1012F00000F058B87047000010B5022803D0410133
:1013000003D50DA112E0002010BD010101D50FA1F0
:101310000CE0C10001D511A108E0810001D512A1A6
:1013200004E0400001D513A100E0002115A000F069
:101330003FF8012010BD0000496E76616C696420A1
:101340004F7065726174696F6E0000004469766960
:101350006465204279205A65726F00004F7665728D
:10136000666C6F7700000000556E646572666C6F86
:1013700077000000496E657861637420526573756B
:101380006C7400005349474650453A2041726974D5
:10139000686D6574696320657863657074696F6EE4
:1013A0003A20000001491820ABBEFEE726000200EB
:1013B00070B505460C460A2000E06D1C00F011F8DF
:1013C00035B128780028F8D102E0641C00F009F853
:1013D00014B120780028F8D1BDE870400A20AFF39E
:1013E000008008B569468DF800000320ABBE08BD3B
:1013F0007047000040F21440C4F201000168890205
:1014000058BF70474FF40011016002F03DBA000070
:1014100040F25C50C2F20000818840F2EA42C2F21F
:1014200000021180018840F2EE42C2F200021180F7
:10143000408840F2F041C2F200010880704700008D
:10144000F0B587B042F200444FF4A0100121C4F27D
:10145000010401F0ABFC092002210022002703F067
:10146000E1FB0825C4F20205284601F0B9FE02AEF0
:10147000304601F05FFE0320C0F20010CDF81200EC
:1014800040F25C50C2F20000039004F14C00029064
:1014900040F20110C0F20120CDF816002846314676
:1014A000ADF8107001F056FE28460221012201F02D
:1014B0008FFE2846012101F037FE0920C0F21800F6
:1014C000012101F073FC022001F04AFB01AD284626
:1014D00000F082FA40F20110C0F200300190204684
:1014E000294600F057FA204604210122032300F088
:1014F0009BFA204605210222032300F095FA20469C
:1015000010210322032300F08FFA012000F0C4FB16
:1015100020460721012200F09FFB2046012100F018
:1015200073FA2046012100F079FA204600F058FABB
:10153000204600F05BFA0028FAD1204600F05AFA63
:10154000204600F05DFA0028FAD107B0F0BD000097
:10155000FEE70000B0B5022001F0F4FD012818BF3D
:10156000B0BD0424C4F2020401252560FFF750FF3A
:10157000082001F0E7FD012808BF2560B0BD00008C
:1015800010B51C242020C4F2020401F0DBFD012868
:1015900006D1102044F8180C206820F001002060CB
:1015A000802001F0CFFD012818BF10BD102044F8A5
:1015B000180C206820F00100206010BD10B5042434
:1015C0004FF48040C4F2020401F0BCFD012810D1A8
:1015D00040F2B340C2F20000007850B140F2204027
:1015E000C4F20000016841F0020101604FF4804044
:1015F00020604FF4005001F0A5FD012808D14FF400
:1016000080502060206C20F00100206404F03CFD3C
:101610004FF4004001F096FD012804BF4FF48050C4
:10162000206010BD70470000FEE7000043F200009C
:10163000C4F2000045F2555101604CF6CC41016006
:10164000032141604FF47A6181604AF6AA2101606A
:1016500070470000FEE70000704700007047000080
:10166000B0B544F20C40C4F20100016840F200053C
:1016700021F001010160C2F2000540F29444B5F886
:101680004E00C2F20004B4F8441000EB40000844DD
:101690008008A5F84E0000F06DFEB5F84E00A9795F
:1016A000C2085143627DC1EB5000002AE186A4F8D4
:1016B000400008BF01F0B6FDA06F42F20F718842F2
:1016C0009CBF0130A067B0BD7047000070470000AC
:1016D00041F20000C4F20200016841F00101016022
:1016E000016889075FBF01685FEA817101685FEA8D
:1016F000817102D401688907F2D5416821F00301A4
:10170000416000BF416811F00C0F0BD0416811F02F
:101710000C0F07D0416811F00C0F03D0416811F095
:101720000C0FEFD101684FF6FF72CFF6F262114055
:1017300001600021416041F61071C1624FF48011D7
:1017400001634FF41F0181604EF6085041F2000121
:10175000CEF20000C0F600010160704710B50B200A
:10176000C0F21800012101F021FB42F60044C4F24E
:10177000010440F6B830E0620020A06246F668003E
:10178000A0616820E06120460021012204F0F0FB06
:1017900020460221012204F0EBFB20460421012215
:1017A00004F0E6FB2046012104F006FC606C3C21BD
:1017B00061F3070060641124C0F214042046012183
:1017C00001F0F4FA601C012101F0F0FA40F200444B
:1017D000C4F60004204602210022022301F064FF27
:1017E000204602210022012301F05EFF4FF09040CD
:1017F00002210022802301F057FF2046012102220E
:1018000001F05EFF20460021022201F059FF4FF057
:1018100090400721022201F053FF4FF09040022137
:1018200000224FF4806301F03FFF4FF0904002210F
:1018300000224FF4007301F037FF4FF09040022177
:1018400000224FF4807301F02FFF4FF090400A21E7
:10185000022201F035FF4FF090400921022201F0F1
:101860002FFF4FF0904008210222BDE8104001F008
:1018700027BF000042F21000C4F200004FF6FE71D4
:10188000016003F04DBF000044F21000C4F20100FB
:101890004FF6FE7101604FF6FD7101607047000068
:1018A00044F21040C4F2010000210160FFF7D8BEED
:1018B00040F21040C4F200000168890744BF4FF6AF
:1018C000FD7101600168C9071CBF4FF6FE71016020
:1018D00070470000B0B51220C0F21400012101F0E1
:1018E00065FA0120C0F21C00012101F05FFA40F20C
:1018F0000044C4F6000420460221002210231025D3
:1019000001F0D2FE20460421012201F0D9FE4FF45D
:10191000A010012101F04AFA4420C4F2020040F66E
:101920008A1101604EF20B40CEF2000005704EF2BB
:101930000010CEF200004FF40061016040F2004060
:10194000C4F200004FF6FF71C1628562016841F088
:1019500080010160016841F001010160B0BD00003B
:1019600070470000FEE700004EF60C50BFF34F8FAB
:10197000CEF200000168042201F4E061C0F2FA52E4
:1019800011430160BFF34F8F00BF00BF00BF00BF16
:10199000FAE700000A78436802F0010223F480733A
:1019A00043EA022242604A78836862F3410383601B
:1019B0008A78836802F0010223F4006343EAC222BA
:1019C0008260C978C26A013901F00F0122F4700205
:1019D00042EA0151C16270474FF080710160704767
:1019E000816841F008018160704700008068C0F3A1
:1019F000C0007047816841F00401816070470000B9
:101A00008068C0F380007047826801F0010122F411
:101A1000807242EA0121816070470000826861F3B0
:101A20000002826070470000B0B5112900F2978073
:101A3000DFE801F00A0E181C2024282C303A444C10
:101A400056606A747E8800BF84465CF8104F38E0A8
:101A500084465CF8105F382404EAC30E25F038038E
:101A600079E000BF84465CF8104F3CE084465CF8A7
:101A7000104F42E084465CF8104F48E084465CF822
:101A8000104F4EE084465CF8104F54E084465CF8FA
:101A9000104F5AE084465CF8104F03F007034FEAFA
:101AA000036E24F0E06356E084465CF8104F03F0C8
:101AB00007034FEAC36E24F060534CE084465CF8A1
:101AC0000C4F03F0070E24F0070344E084465CF853
:101AD0000C4F382505EAC30E24F038033BE000BF65
:101AE00084465CF80C4F03F007034FEA831E24F48E
:101AF000E07330E084465CF80C4F03F007034FEAD4
:101B0000432E24F4606326E084465CF80C4F03F017
:101B100007034FEA033E24F4E0431CE084465CF8EC
:101B20000C4F03F007034FEAC33E24F4603312E086
:101B300084465CF80C4F03F007034FEA834E24F40D
:101B4000E01308E084465CF80C4F03F007034FEA0B
:101B5000435E24F4600343EA0E03CCF80030013AFC
:101B60000F2A88BFB0BDDFE802F0090D1115191D5D
:101B70002125292D313D49535F6B00BF50F8342F8B
:101B80003EE000BF50F8342F44E000BF50F8342F3F
:101B90004CE000BF50F8342F54E000BF50F8342F11
:101BA00016E000BF50F8342F1EE000BF50F8302F71
:101BB00026E000BF50F8302F2CE000BF50F8302F47
:101BC00034E000BF50F8302F3CE000BF50F8302F19
:101BD0004FF0F87303EA015122F0F87211430160EB
:101BE000B0BD00BF50F8302F4FF0785303EA416189
:101BF00022F0785211430160B0BD00BF50F82C2F85
:101C000001F01F0122F01F0211430160B0BD00BFAF
:101C100050F82C2F4FF4787303EA411122F47872B4
:101C200011430160B0BD00BF50F82C2F4FF4F843B2
:101C300003EA812122F4F84211430160B0BD00BFE4
:101C400050F82C2F4FF4782303EAC13122F4782284
:101C500011430160B0BD00008368072923F00073C1
:101C600088BF03F100738360836802F0010261F3AF
:101C700053438360816821F4801141EA02518160FD
:101C800070470000826801F0010122F4800242EAFC
:101C9000815181607047000042F20841C4F20101A5
:101CA0000A6800F0010022F4000242EAC050086015
:101CB000704700002DE9F04140F2000CC2F2000C28
:101CC00040F2944E9CF81920C2F2000EBEF84C006F
:101CD000D2B1431E18B2002848BF40F26713BEF8C5
:101CE0004E00AEF84C30421E10B2002848BF40F201
:101CF0006712BEF85000AEF84E20013801B200293C
:101D000048BF40F2671019E0431C18B2B0F5B47F29
:101D1000A8BF0023BEF84E00AEF84C30421C10B2F3
:101D2000B0F5B47FA8BF0022BEF85000AEF84E2038
:101D3000013001B2B1F5B47FA8BF0020AEF8500069
:101D400040F2E60E19B2C2F2000E3EF91140BCF8A4
:101D50004C30BCF83E101C4444F6D3584C43C1F2FE
:101D6000620854FB08F4E6119CF8085006EBD476A0
:101D700046F267646E43C6F2666456FB04F6B7101B
:101D800007EBD67742F63446C4F20106376012B24A
:101D90003EF9122000B21A444A4352FB08F2D7110E
:101DA00007EBD2726A4352FB04F2971007EBD27230
:101DB00072603EF910001844484350FB08F0C1110E
:101DC00001EBD070684350FB04F0811001EBD07040
:101DD000B060BDE8F0810000F0B581B02825C4F600
:101DE000000505F576742046012100220223012614
:101DF000022701F059FC4FF09040012100224FF4DE
:101E00008063C5F800744FF4806701F04DFC2046F4
:101E10000121002201232F6001F046FC4FF0904089
:101E2000012100224FF40073C5F800644FF40074E0
:101E300001F03AFC4FF090400121002280232C60F9
:101E4000802401F031FC4FF09040012100224FF43A
:101E500080732C604FF4807401F026FC2C6001B07C
:101E6000F0BD000070B540F20105C2F2000528780F
:101E700040F20044C4F600040028204606D00221A7
:101E80000022022301F010FC07E000BF0121002224
:101E90000223022601F008FCA6624FF090400221C6
:101EA00000224FF4806301F0FFFB287830B1204618
:101EB00002210022012301F0F7FB07E02046012167
:101EC00000220123012601F0EFFBA6624FF09040B3
:101ED000022100224FF4007301F0E6FB287838B1AC
:101EE0004FF0904002210022802301F0DDFB0CE046
:101EF0004FF09040012100228023802501F0D4FB87
:101F00004FF62840CFF6FF7025504FF09040022149
:101F100000224FF48073BDE8704001F0C5BB0000A3
:101F200040F21C03C2F200031A781C20C121C4F243
:101F30000100042AC4F2000101D0012A03D101F1F9
:101F4000100202601A78052A01D0022A03D101F199
:101F5000200202601A78062A04D0032A08BF016012
:101F600001E000BF016040F21801C2F200010A78EE
:101F7000D0F8EC1352B121F40011C0F8EC13D0F8F2
:101F8000F01341F40011C0F8F013704741F4001150
:101F9000C0F8EC13D0F8F01321F40011C0F8F013DE
:101FA00070470000002818BF70471C20C4F20100D1
:101FB000026861F30002026070470000F0B581B072
:101FC0000138052800F2D481DFE800F004185694A7
:101FD000BEE800BF40F20100C2F2000000782824F1
:101FE000C4F60004002804F5767000F0EB800221AE
:101FF0000022022301F058FBECE000BF2825C4F6C4
:10200000000505F5767420460121002202230126F1
:10201000022701F049FB4FF09040012100224FF4CC
:102020008063C5F800744FF4806701F03DFB2046E3
:102030000121002201232F6001F036FB4FF0904078
:10204000012100224FF40073C5F8F0634FF40074CF
:1020500001F02AFB40F201002C60C2F2000000787F
:10206000002800F0EB804FF09040022100228023F6
:1020700001F01AFBF5E000BF2825C4F6000505F5C0
:10208000767420460121002202230126022701F056
:102090000BFB4FF09040012100224FF48063C5F804
:1020A000F0734FF4806701F0FFFA2046012100220F
:1020B00001232F6001F0F8FA4FF090400121002237
:1020C0004FF40073C5F800644FF4007401F0ECFAAB
:1020D00040F201002C60C2F200000078002800F0FD
:1020E000B7804FF0904002210022802301F0DCFAFB
:1020F000B7E000BF2825C4F6000505F57674204634
:102100000121002202230126022701F0CDFA4FF01F
:102110009040012100224FF48063C5F8F0734FF422
:10212000806701F0C1FA40F201002F60C2F20000A6
:102130000078002800F0A080204602210022012320
:1021400001F0B2FAA0E000BF2825C4F6000505F5AD
:10215000767420460121002202230126022701F085
:10216000A3FA4FF09040012100224FF48063C5F89C
:1021700000744FF4806701F097FA40F201002F607D
:10218000C2F200000078002800F090802046022172
:102190000022012301F088FA90E000BF40F2010024
:1021A000C2F2000000782824C4F60004002804F5D8
:1021B000767000F0A38002210022022301F074FA5D
:1021C000A4E000BF012100220223022501F06CFAE5
:1021D000C4F800544FF09040022100224FF4806375
:1021E00001F062FA04F57670012100220123012535
:1021F00001F05AFA4FF09040012100224FF4007391
:10220000C4F8F0534FF4007501F04EFA4FF09040CF
:102210000121002280232560802501F045FA4FF03E
:102220009040012100224FF4807325604FF48075A7
:1022300001F03AFA256001B0F0BD00BF4FF09040C8
:10224000012100228023802401F02EFA2C6008E076
:102250004FF09040012100228023802401F024FAD5
:102260002C604FF09040022100224FF4807301B0A7
:10227000BDE8F04001F018BA2046012100220123F8
:1022800001F012FAC5F800644FF0904002210022DC
:102290004FF4007301F008FA4FF090400121002242
:1022A0008023802401F000FA2C6019E020460121EF
:1022B0000022012301F0F8F9C5F800644FF09040C6
:1022C000022100224FF4007301F0EEF94FF090402C
:1022D000012100228023802401F0E6F945F8104C0A
:1022E0004FF09040012100224FF480734FF480742E
:1022F00001F0DAF92C6001B0F0BD00BF012100222D
:102300000223022501F0D0F9C4F800544FF09040A8
:10231000022100224FF4806301F0C6F904F57670C3
:10232000012100220123012501F0BEF94FF0904068
:10233000012100224FF40073C4F800544FF40075DB
:1023400001F0B2F94FF09040012100228023256076
:10235000802501F0A9F94FF09040012100224FF4AF
:10236000807344F8105C4FF4807501F09DF925608E
:1023700001B0F0BD2DE9F04381B040F20000C2F29F
:10238000000040F21053017FC2F20003B0F84E206B
:102390001F1D07EB410727F8022C9A88DF881E894A
:1023A0003A445F8932443A449F89DB89467E3A4405
:1023B0001A4440F294455208C2F20005012E6A67A1
:1023C0000AD10131CAB2072A017722BF0121017760
:1023D000697401F0010209E001390A06017703D1AD
:1023E0000621012201776A7401228A4344F62404FB
:1023F000C4F20104027600202060287D10B9C8B222
:10240000FFF7DCFD2068A884FFF78AFDE86EB0F5D1
:10241000FA6F05D92879697A08431CBF01206875CD
:10242000A87A00210028298453D0287E002850D083
:1024300040F26406E88CD5E91D18C2F20006B369C3
:10244000091AD6E9010237695C1804FB0272376A7F
:10245000F468D5F86090BA42C8BF3A467F42CB1ABA
:10246000BA42B8BF3A4604FB0327316000FB017053
:10247000776A6343B842C8BF38467F42B842B8BFA4
:102480003846C6E90423C6E9061004F0F7F944F219
:102490000001C4F21C6104F0C1F80146484603F093
:1024A000E7FF0021C4F2FA41044604F08FF8002847
:1024B0001CBF0024C4F2FA4420460021002704F087
:1024C0009AF8002818BF0024B8F1630F2C6698BF53
:1024D000376101B0BDE8F0832DE9F04F8FB040F2D5
:1024E0007051C2F200010B68D1F87CE06FF42F60EC
:1024F000AEEB030710FA87F040F2BA2640F220490B
:10250000B042C2F20009A9F8067000F2AD81D1E92B
:102510000176D1E90354A7EB030AA81BD1E90536DC
:10252000CD690D90181B01F120080C90A81B98E8AC
:10253000FC010B90D1E90F0C9A1A0A922A1BA0EB0E
:1025400008000992BA1B0590D1E912604D6C801BFE
:102550000690D1E914700892A5EB0C02D1E916544B
:10256000C01B0490601B0E90D1E91840D1E91A5BA2
:10257000001B0390ABEB0500D1E91C540290631BD8
:1025800048F21F550D98C5F2EB150792AAFB0528D6
:10259000A0FB052A0C9A896FA2FB052B0B9AAEEBC8
:1025A0000101A2FB05200A9A0190A2FB0526099AC7
:1025B000A2FB052C089AA2FB052000900598A0FB21
:1025C000052008900798A0FB052706980B97A0FB0D
:1025D000052E0498A0FB052403980C94A0FB05206D
:1025E00007900298A0FB05200990A3FB05200A9004
:1025F000A1FB05200E997309A1FB05256A094FEA85
:102600005C1183EA58160D90C9F84420420986EA05
:10261000571681EA5A17009887EA5E17C9F85420BE
:10262000BF004009089A47EAC60780EA5B16DDF852
:1026300004C086EA5416520947EA460682EA5C1745
:1026400087EA5515079C354308956509099C07904D
:1026500066090A9CC9F84C60B600C9F830000B98AE
:10266000C9F8485046EAC5056409C9F8504045EA2A
:1026700044054FEA58140A92C9F834204FEA50181A
:102680000D9840F2B04640F270624FEA5A17C2F21B
:102690000006C2F200020397C9F81C704FEA5B17EC
:1026A0000991C9F82C104FEA5E1145EA501E96F8C0
:1026B00000B092F800A00C980497C9F820704FEA77
:1026C0005C174FEA501C5AEA0B05C9F818400597E9
:1026D000C9F824700693C9F82830C9F83880C9F8B9
:1026E0003C10C9F840C05DD140F21045C4F6000569
:1026F0002D68ED0656D599F8025037460135EEB2F1
:10270000652E3E4689F802504CD301251570CEF156
:102710000F0E08988EEA00073F064DD10698B9F8CB
:102720000830820142EA8422039842EA880242EA9F
:102730004020099A40EA421040EA410004990022F0
:1027400040EA0120079940EA0110059940EA0C008F
:1027500040EAC1100A9940EAC10140F2D640C2F2F3
:10276000000002800E9A581C643A632AA9F80800F7
:1027700005D840F2A740C2F20000012202703029C1
:1027800020DB40F2D040C2F20000018040F27160D4
:10279000C2F200000021017089F800100FB0BDE8FE
:1027A000F08F00BFBAF1000F18BFCEF10F0E0898DE
:1027B0008EEA00073F06B1D0B9F80A000130A9F847
:1027C0000A0051E0012911DB40F2D040C2F20000C2
:1027D0000022028040F27160C2F20000CBB20170B0
:1027E000BBF1000F18BF002B3ED00BE000293FD0FB
:1027F00040F27160C2F200000378BBF1000F18BF15
:10280000002B31D040F2AC40C2F20000007800282A
:102810002AD199F8010083421EBF89F801300020B7
:1028200089F80000052B07D399F800000130C1B2E8
:10283000062989F8000017D3591E0024142989F8A5
:10284000004000F29580DFE801F00B23279393937B
:102850002B3D515F936D717793939393938189008F
:1028600002F068FB84E000BF0FB0BDE8F08F00BF4E
:1028700040F2D040C2F200000021018040F27160BD
:10288000C2F20000017089F800100FB0BDE8F08FAF
:1028900002F08EFB6CE000BF02F0FCF968E000BFC4
:1028A00040F29540C2F200000021017040F2190090
:1028B000C2F200000121017040F2A440C2F2000007
:1028C000017055E040F29540C2F200000121017014
:1028D00040F21900C2F200000021017040F2A44051
:1028E000C2F200000221017042E000BF40F29640B7
:1028F000C2F200000021017040F2CC40C2F20000A0
:102900003170018034E000BF40F29640C2F2000016
:102910000121017040F2CC40C2F200000021018090
:10292000317025E002F072FC22E000BF012089F83E
:1029300003004FF4606004E0002089F8030040F6D3
:10294000FF60A9F8040002F041F811E040F2954060
:10295000C2F200000078C0F1010004E040F29540AE
:10296000C2F20000007840F21901C2F200010870C2
:1029700040F27160C2F20000017840F28C72C2F243
:102980000002117004700FB0BDE8F08F70B582B016
:1029900040F27055C2F20005D5E9000140F27652CE
:1029A000081AA0F2213140F278449142C2F20004A8
:1029B00036D86178D1B3E178002951D0217940F23D
:1029C000E14290420BD840F22602C2F20002138884
:1029D0000131C3EBC3031844C00821711080C8B291
:1029E0004C286BD340F22600C2F20000018800257B
:1029F000193101804FF61250CFF6FF7010FA81F0B6
:102A000000EBD07040F272614008C2F2000181F820
:102A10002000657002F0FAFB257102F023FA4DE008
:102A200040F2CC40C2F200004CE000BF40F29641C0
:102A3000C2F20001097839B340F22A01C2F2000162
:102A40000A8890422ED940F22801C2F200010B8878
:102A5000511C4FF4FA661A4640F2E9332AE000BFEF
:102A6000A17840F2280600290CBFE080E0880131FF
:102A7000C2F20006A170318880B200F0CFFD332889
:102A80003EDB002060705CE040F2260140F228024C
:102A9000C2F20001C2F20002098812884FF4FA66FD
:102AA00007E000BF40F22601C2F2000109884FF49E
:102AB0007A760023009602F095F8E06040F2D64066
:102AC000C2F2000040F2D041C2F2000140F2E00642
:102AD000E2680B88C2F200063668D51AB5424FF09C
:102AE0000005058004DD9A190A8002B070BD00BFA0
:102AF000981AB042C8BF9A1B0A8002B070BD00BFCE
:102B00003088D5E90012C0EBC000511A0844A17802
:102B1000C0083329308014D34FF62A111938CFF664
:102B2000FF71308011FA80F000EBD07040F27261DA
:102B30004008C2F2000181F821000120E07002F09B
:102B4000C5F9E07831880028E180B7D0D5E90001E7
:102B5000081A217940F2E14290427FF634AF3EE715
:102B600041F20401C4F202010A6860F38F320A6084
:102B70000A68C0F3830060F31C720A6070470000AB
:102B800041F20401C4F202010A6800F00F0022F0D1
:102B9000F00242EA001008607047000041F20401B0
:102BA000C4F202010A6800F0070022F4E06242EA7F
:102BB000002008607047000041F20401C4F20201E5
:102BC0000A6800F0070022F4605242EAC020086060
:102BD0007047000041F25401C4F202010A68012862
:102BE00022F0300208BF30320A607047042888BFE4
:102BF0007047DFE800F0030D1B29330041F20000AD
:102C0000C4F20200026861F300020260704700BF74
:102C100041F20000C4F20200026801F0010122F456
:102C2000803242EA01410160704700BF41F200007A
:102C3000C4F20200026801F0010122F0807242EA4F
:102C400001610160704700BF41F20000C4F2020060
:102C5000026A61F300020262704700BF41F20000A5
:102C6000C4F20200426A61F300024262704700004F
:102C700070B541F20401C4F202010A68C2F3810393
:102C800041F20022022BC0F27A020DD0002B4BD170
:102C90000B6D9B0548D5CB6A9B0144BF46F60042AD
:102CA000C0F2DC2240E000BF0B688C6AC3F3004630
:102CB000002C17D40C680B68C4F38344C3F341732E
:102CC0001D010135002B2B4608BF02230F2C08BF26
:102CD0002B46234406BB40F60012C0F23D025A4385
:102CE00022E000BF8B6A8C6AC3F3031E8B6A40F636
:102CF000001CC0F23D0CC4F3082403F007031EB10E
:102D00000D68AD0358BF94460CFB04F20EFA03F3B2
:102D1000B2FBF3F208E000BF0E68B60344BF40F612
:102D20000012C0F23D025A4302600B6812A6C3F3C0
:102D30000313F35C46F6CA76DA4042600B68C0F6CD
:102D40000006C3F30223F35C22FA03F3C3600B68AB
:102D5000C3F3C223F35C0426DA4082600B6809687F
:102D600006EA9363C1F38131194407A3595CB2FBAE
:102D7000F1F1016170BD00BF000000000000000023
:102D8000010203040607080902040608020C0810E1
:102D900041F20002010CC4F20202895800F01F0047
:102DA00021FA00F000F001007047000041F200023B
:102DB00000F01F034FF0010CC4F2020201290CFACB
:102DC00003F14FEA1040835814BF23EA010119436D
:102DD0008150704741F2000200F01F034FF0010CD8
:102DE000C4F2020201290CFA03F14FEA10408358A1
:102DF00014BF23EA010119438150704741F20402D4
:102E0000C4F20202136868B143F48033136013689C
:102E1000012807BF23F400334FF0007043F4003360
:102E2000002002E023F4803300201360136861F374
:102E3000954313601368C1F3021161F35E7313606D
:102E4000916A21F0E06108439062704741F200000E
:102E5000C4F20200016841F00101016001688907C4
:102E60005FBF01685FEA817101685FEA817102D426
:102E700001688907F2D5416821F00301416000BF74
:102E8000416811F00C0F0BD0416811F00C0F07D006
:102E9000416811F00C0F03D0416811F00C0FEFD115
:102EA00001684FF6FF72CFF6F26211400160002117
:102EB000416041F61071C1624FF4801101634FF41B
:102EC0001F0181607047000041F20401C4F2020159
:102ED0000A6860F301020A607047000041F20400D2
:102EE000C4F202000068C0F38100704744F6240178
:102EF000C4F2010100220A6007E000BF0A688242B2
:102F000028BF70470A68824205D20A68824202D20C
:102F10000A688242F2D3704744F62401C4F20101E8
:102F200000220A6042F6E0624A6051F8102C00EB81
:102F3000800042F00102400041F8102C0A688242F1
:102F400008D20A68824205D20A68824202D20A681E
:102F50008242F3D37820486051F8100C40F0010011
:102F600041F8100C70470000F0B540F27053C2F207
:102F7000000340F2884240F2B24E40F2B34C1E6869
:102F8000C2F2000244F62061C2F2000E0020C2F23A
:102F9000000C002451608EF800008CF8000002E064
:102FA0002830782852D01D186F68BE1B04D03444D6
:102FB0008E423CBF56603146AE68F71B04D03C449D
:102FC0008F423CBF57603946EF68BE1B04D0344483
:102FD0008E423CBF566031462E69F71B04D03C44FC
:102FE0008F423CBF576039466F69BE1B04D03444E2
:102FF0008E423CBF56603146AE69F71B04D03C445C
:103000008F423CBF57603946EF69BE1B04D0344441
:103010008E423CBF566031462E6AF71B04D03C44BA
:103020008F423CBF576039466F6ABE1B04D03444A0
:103030008E423CBF56603146AE6AF51BB0D02C4480
:103040008D423CBF55602946AAE700BFE0096309ED
:103050000E2893601AD88B1E032B17D240F258000B
:10306000C2F200004FF430530380012353708EF8F6
:10307000003040F2DC03C2F2000342F210774FF658
:10308000E8521F802023C0E9013224E0182822D80A
:10309000481F03281FD840F258030120C2F2000342
:1030A0008EF8000018700320507040F22440C4F2E3
:1030B00000004FF6FF71016040F2DC01C2F2000136
:1030C00042F210770F8020212C20596051685870EF
:1030D0004FF6E8509860A1F11F00B0F59C4F10D852
:1030E00001208CF8000040F25800C2F20000772264
:1030F000027040F2DC02C2F200022323138002229B
:1031000042604FF0000021B144F62062914218BFA6
:10311000012040F2B142C2F20002107044F63400C5
:10312000C4F201000160F0BD026861F300020260B8
:103130007047000000210182C0E90011C0E90211BE
:10314000704700000021C4F202010968084018BF5E
:103150000120704702684BF6EF731A4002600A893B
:1031600003681A4302604A7C036802F0030223F4F6
:10317000405343EA02320260CA7B036802F0030252
:1031800023F4406343EA822202608A7B036802F0F0
:10319000030223F4407343EA022202604A7B03687D
:1031A00002F0010223F0800343EAC21202600A7BAC
:1031B000036862F3861303600A7C036862F34513B5
:1031C00003604A8942600A6882604968C16070474A
:1031D000002A02680CBF22EA010111430160704716
:1031E00001686FF007024CF6CD4352FA80F2CCF63C
:1031F000CC43A2FB032321F0010101600021042242
:10320000016041608160C1606FF00300C4F202029E
:1032100000EA93000F21136801FA00F018431060D0
:103220007047000040F20040C4F20100016841F420
:10323000001101607047000042F20C01C4F202016B
:103240000860704742F21000C4F20200016841F0C9
:10325000800101607047000042F20C01C4F20201DB
:103260004A6842F002024A608860486840F04000C4
:1032700048600868C0070DD10868400746D4086850
:10328000C0064FF0020058BF03204A6822F0020235
:103290004A6070474FF080420868C00700F08B809A
:1032A0000868C00738D00868C0073BD00868C00766
:1032B0003ED00868C00741D00868C00744D00868FD
:1032C000C00747D00868C0074AD00868C0074DD07B
:1032D0000868C00750D00868C00753D00868C00706
:1032E00056D00868C00759D00868C0075CD0086885
:1032F000C0075FD00868C00768D0103ACCD104205E
:103300004A6822F002024A60704700BF01204A6802
:1033100022F002024A607047013A086840074DD522
:1033200058E000BF023A0868400747D552E000BFA6
:10333000033A0868400741D54CE000BF043A0868EA
:1033400040073BD546E000BF053A0868400735D541
:1033500040E000BF063A086840072FD53AE000BFBA
:10336000073A0868400729D534E000BF083A0868E2
:10337000400723D52EE000BF093A086840071DD555
:1033800028E000BF0A3A0868400717D522E000BFCE
:103390000B3A0868400711D51CE000BF0C3A0868DA
:1033A00040070BD516E000BF0D3A0868400705D569
:1033B00010E000BF0E3A086840070BD40868C0064A
:1033C0004FF0020058BF032005E000BF0F3A086825
:1033D0004007F3D50120012A08BF04204A6822F0E3
:1033E00002024A607047000042F2040040F22311DA
:1033F000C4F20200C4F26751016048F6AB11CCF68A
:10340000EF5101607047000042F20C02C4F2020268
:10341000536843F00103536001601068C0070DD189
:103420001068400746D41068C0064FF0020058BF2D
:103430000320516821F00101516070474FF4801161
:103440001068C00700F08B801068C00738D0106883
:10345000C0073BD01068C0073ED01068C00741D0FD
:103460001068C00744D01068C00747D01068C00774
:103470004AD01068C0074DD01068C00750D01068FF
:10348000C00753D01068C00756D01068C00759D085
:103490001068C0075CD01068C0075FD01068C00714
:1034A00068D01039CCD10420516821F0010151605D
:1034B000704700BF0120516821F001015160704741
:1034C0000139106840074DD558E000BF0239106837
:1034D000400747D552E000BF03391068400741D587
:1034E0004CE000BF0439106840073BD546E000BF00
:1034F00005391068400735D540E000BF063910682F
:1035000040072FD53AE000BF07391068400729D59A
:1035100034E000BF08391068400723D52EE000BF13
:103520000939106840071DD528E000BF0A39106826
:10353000400717D522E000BF0B391068400711D5AE
:103540001CE000BF0C39106840070BD516E000BF27
:103550000D391068400705D510E000BF0E3910681E
:1035600040070BD41068C0064FF0020058BF03207C
:1035700005E000BF0F3910684007F3D5012001298D
:1035800008BF0420516821F001015160704700001C
:10359000F0B581B02825C4F6000505F576742046FF
:1035A0000121002202230126022700F07DF84FF0BE
:1035B0009040012100224FF48063C5F8F0734FF46E
:1035C000806700F071F820460121002201232F605E
:1035D00000F06AF84FF09040012100224FF4007390
:1035E000C5F8F0634FF4007400F05EF84FF09040BF
:1035F0000121002280232C60802400F055F84FF038
:103600009040012100224FF4807345F8104C4FF494
:10361000807400F049F82C6001B0F0BD401A48BF3A
:10362000404270472DE9F0410A88002A08BFBDE8F2
:10363000F0814FF000084FF0030C4FF0010E002412
:10364000002508E0B8EB520F4FEA520205F10105E0
:1036500004F1020426D0D607F4D006680CFA04F769
:10366000BE4306608E790368A64033430360436817
:103670000EFA05F6B34343600B794668AB4033431B
:1036800043608368BB438360CB798668A340334340
:103690008360C368BB43C3604B79C668A3403343B0
:1036A000C360CFE7BDE8F081D0F800C05B4303EB17
:1036B00043022CEA020259431143016070470000A3
:1036C00010B51C2303EA810E24234FF00F0C11F0D8
:1036D000F80F08BF2023C4580CFA0EF124EA0101A8
:1036E000C150C15802FA0EF21143C15010BD000082
:1036F0002DE9F04F81B001F0E7FE4FF4A010012159
:10370000FFF754FB4EF20B47CEF2000710204EF2AB
:1037100000163870CEF200064FF400603060FEF7FD
:103720001DF840F2010BC0F21C0B0BF1030001214C
:10373000FFF73CFB41F22800C4F200004FF6FF7A8D
:103740003B24C0F804A004600BF107000121FFF73F
:103750002DFB42F22800C4F2000064214160772171
:103760000160202038724FF4002011253060C0F233
:10377000140528460121FFF719FB4FF4C010012161
:10378000FFF714FB4FF090400321002202234FF07B
:103790000009FFF789FF4FF090400321002220230A
:1037A000FFF782FF87F801904FF4805030600020CF
:1037B0000121FEF7F7FB1220C0F218000121FFF7EC
:1037C000F5FA44F62C0044F20048C4F20100C4F2B9
:1037D0000108C0F800A0C8F82844D8F80004012166
:1037E00040F08000C8F8000405F58020FFF7DEFAFD
:1037F0004FF4FA70C8F82C00C8F82840D8F8000038
:10380000012140F08000C8F8000087F80A904FF4CA
:1038100000103060681CFFF7C9FA58460121FFF715
:10382000C5FA40F20044C4F60004204602210022FA
:103830001023FFF739FF204604210122FFF740FF44
:103840004FF4A0100121FFF7B1FA4420C4F20200A6
:1038500040F68A110160102139704FF40060306029
:1038600040F20040C4F20000C0F82CA08162016860
:1038700041F080010160016841F00101016001B087
:10388000BDE8F04F01F0D2BE70B540F29444C2F2F0
:103890000004E06E41F224057E28C4F2000521D325
:1038A00028687C2808D8E08FC0084A2804D8A06F70
:1038B000B0F5FA7F00D270BD40F20001C2F2000103
:1038C0002868B1F84E10B0EB510FF4D3A07E013050
:1038D000C1B26529A07605D301F098F90020A06750
:1038E00070BD00BF40F20006C2F200062868327EBA
:1038F000B17DA4F84400EAB1D9B31C20012998BFD6
:103900000121C4F20100013902685200D3D481B30D
:1039100002685200CFD401292BD002685200CAD4C9
:10392000022926D002685200C5D404394A1CEBD1C2
:103930001FE000BFE9B11C20012998BF0121C4F29A
:103940000100013907E000BF0268520058BF70BD96
:1039500004394A1C0DD002685200ACD549B1026846
:103960005200A8D5012904D002685200A3D502292B
:10397000EAD101F04BF900202860B4F84010327D04
:10398000D14044F20C42C4F20102A4F8401090610C
:1039900011625060106840F00100106070BD0000BE
:1039A000F0B581B040F27264C2F2000447F6004103
:1039B000C0F600012046B02201F0BAFB607CA17C79
:1039C0000138B0FA80F040F294474009C2F2000793
:1039D0007870481EE27CB0FA80F04009012AB87085
:1039E00004BF01207871207D617D0138B0FA80F03C
:1039F00040F200064009C2F200067070481EA27D27
:103A0000B0FA80F04009B070501EB0FA80F0400962
:103A1000E37DF070207E042BA0F1080128BF022373
:103A20002829B37116D8182826D2A0F10C010B2929
:103A300033D900F0FC01082940D141F2707C072104
:103A4000102242F6E063CDF800C001F0CBF8F08719
:103A500035E000BF42F62C414FF47A60C4F2010118
:103A6000B0870860607EA0F13201642936D99620C3
:103A70007086552030874AE040F29A2C1821902217
:103A80004FF47A63CDF800C001F0ACF80146207E17
:103A9000F187A0F10C010B29CBD84FF47A6C0C21E3
:103AA00018224FF4FA53CDF800C001F09BF80146FC
:103AB000207EF18700F0FC010829BED0F08F42F68D
:103AC0002C4281B2C4F201021160A6F84800A6F8A7
:103AD0004000607EA0F132016429C8D83C21F28FF9
:103AE00001EB500144F6D3535143C1F26203A1FBF1
:103AF00003150F2101EB90005043A0FB0301E809DF
:103B00007086C80930870A2000EBD1107087A07E2C
:103B1000227F00EB8000142505EBC000F083501ECF
:103B2000637FB0FA80F04009F870581EB0FA80F058
:103B3000E17E400938710520F17101F0BBFC60782D
:103B4000002800F09B80A07F0B2888BF052001F093
:103B5000B1FCE07F94F820100138B0FA80F0400901
:103B6000B87140F2EE2094F8212000EB410094F867
:103B70002230F08440F2D66000EB4200308503F240
:103B80005E50708594F8230094F824107073481EDA
:103B9000B0FA80F094F825104009387201F1FA006B
:103BA00094F82610B085481EB0FA80F0400978726B
:103BB00094F828000021421F142AF97198BF30732D
:103BC00094F82900411E092998BF707294F82A00C0
:103BD000411EC9B2082919D8B07200EB80006FF0FD
:103BE0002D01A1EB4000617EF07251FA80F27286E5
:103BF0004908B6F8462051FA80F1318752FA80F12F
:103C0000F28EA6F8461052FA80F0F08694F82B0057
:103C1000A0F14601462998BF707194F82C00411E0E
:103C2000622903D8400030840120F87294F82D00F6
:103C30002025411E092998BF3072F08B81084A293E
:103C40009CBF0021F17348F21F51C5F2EB11A0FB9C
:103C500001124FF2F101CFF2F001A0FB0113F17953
:103C60005209B5FBF1F11B09B2FBF1F2B3FBF1F123
:103C7000A6F84220A6F8441001E000BFF08B40F205
:103C8000E2454FF4967140F6B83240F6C413009501
:103C900000F0A8FF71783086002904BF0020B870BA
:103CA00001B0F0BD82B040F2944642F6144742F6AD
:103CB000004941F22405C2F200060220C4F20107C5
:103CC000C4F20109C4F2000562B6B074FFF710FD3A
:103CD00048460021012202F0FBF848460221012259
:103CE00002F0F6F848460421012202F0F1F84846B5
:103CF0000121012202F0ECF848460321012202F0E2
:103D0000E7F8484605210122052402F0E1F8D9F838
:103D1000000040F00100C9F80000386B40F400409A
:103D20003863386840F00100386044F20040C4F263
:103D30000100016840F2004741F001010160416962
:103D4000C4F2000741F001014161C16821F00101A5
:103D5000C160D0F8001441F00101C0F80014D7F898
:103D6000000C40F00100C7F8000C55F8100C40F0B2
:103D7000010045F8100C42F20000B474C4F20000D7
:103D8000016841F001010160416941F001014161B7
:103D9000C16841F00101C160FDF752FB38460021C6
:103DA000012202F095F8386840F0010038600620E2
:103DB000B074FFF7F5FD40F27260C2F20000C17806
:103DC00040F200080129C2F2000802D101795D2900
:103DD0004AD045F60151A0F8031044F64111C4F64B
:103DE0004B71C0F8051042F24E01C2F25301C0F807
:103DF000091043F24641C2F22001C0F80D1098F8B4
:103E00000010B4784170717877790139B1FA81F195
:103E100049094174611EB1FA81F149098174791E21
:103E200098F80120B1FA81F14909C174511E98F83E
:103E30000230B1FA81F149090175591E98F803C0A1
:103E4000B1FA81F149094175ACF1010198F80620F8
:103E5000B1FA81F14909C27547F600428175C0F691
:103E60000002B02101F014FA707944F6D352002810
:103E70001CBFB8F83400A8F83200B8F83E00B8F813
:103E80003610C1F262024143A1FB0213B8F846109A
:103E900077784143A1FB0212791E18BF012188F8EF
:103EA000191098F80B1098F8017001EBD311A8F8CD
:103EB0003610D109A8F83C00A8F84610002FA8F841
:103EC000480004BF00207071707A0721B174F0B10E
:103ED0004FF47A70A8F846000120B070002188F8ED
:103EE0000F00B8F838007171A8F8011088F80310B5
:103EF000B8F83A103230A8F8380001F13200B8F8BA
:103F00003210A8F83A0001F13200A8F8320043F26A
:103F10000004C4F2000401F089F84FF0000AA6F88A
:103F200038A0FDF783FB4AF6AA2020600820B07471
:103F3000FDF7D0FC01F02EF93078A9F500610028DA
:103F40001CBF0120B07209204FF0010B4FF47A79A9
:103F500001910CE042F61440C4F20100C0E908AA45
:103F6000C0F828A0FDF738FF86F818A0B07C43F20F
:103F70000001C4F200014AF6AA2201300A60C1B26F
:103F8000C929B074C0F08280B6F85A0040F6E44403
:103F900040F201116043C0F21001A0FB0112801A2F
:103FA00002EB500098F81010C00A484348F21F5125
:103FB000C5F2EB11A0FB0101B6F8560096F82320DC
:103FC000B38D801AA6F8560080B248F2E80250433A
:103FD00043F23812A2EB10304FF2CF32CCF63C72E3
:103FE00050FB02F0C21002EBD07096F82220B6F817
:103FF0005C70C3EBC3031930C2EBC2023B44A6F8AA
:1040000058001044B6F84620DB08C00803FB04F74C
:1040100040F2FF4486F82200C2EBC200C4F6EC7402
:1040200000EB5110A7FB0474C008A6F84600200A54
:10403000F08501980121B385FDF724FE307A18B38D
:10404000B07BB8F82C10B6F846204843904219D9F6
:10405000308D717E4FF67C430130CFF6FF7382B214
:1040600011FB0391914230850EDAA6F83AA0FDF7D4
:10407000B3FE00F0CBFD86F818A0A6F838A086F8AD
:104080001CA001E0A6F828A086F812A0B278B17FA3
:10409000012A86F81AA008BF00290BD0B08F002A89
:1040A00018BF002926D17086B16F002840F04781E3
:1040B00062E100BF717A98F80D30B08F002909EBEA
:1040C00043012BD0814280F0958098F819207778B1
:1040D000BA4240F08D80377EA6F832A0002F00F063
:1040E000838086F814B0A9EB4302824200F38680F5
:1040F000B6E000BFB0F5836F48D398F81910727816
:1041000091423CD1B8F84E00B8F83020904229D8FE
:10411000707E38BB0020B08731E000BF81420BD3F6
:10412000A9EB4302824200F3CA80A9EB430181421A
:1041300040F2F78000E100BF98F8192073789A42A6
:1041400040F0AB80B8F84E00B8F83030984200F23A
:104150009380707E002840F08F804FF47A70B08793
:104160009BE000BFC1F1010088F81900C6F878A0F3
:1041700086F815B000F04AFDB08F86F80FA098F8C9
:104180001210C1EB4001A1F601017186A0F13001CE
:1041900089B2C9087C2922D8717898F81920C1F110
:1041A0000103934215D1B8F84E00B8F83020904280
:1041B00004D8707E10B90020B0870AE0C6F878A055
:1041C00086F815B088F8191000F020FDB08F86F839
:1041D0000FA098F81210C1EB4001313971863028D8
:1041E000C0F0A380A8E000BFC2F1010288F8192046
:1041F000327D1AB3A9EB4302824231DD717898F81F
:104200001970C1F10104BC4208D1377E002F0CBFE8
:1042100088F8191086F814B0A6F832A0317DF9B9E3
:10422000002140F2FF732F27009700F0DBFC0146CE
:10423000B08F98F80D30718612E000BF4FF4FA622B
:104240002F2340F2FF77009700F0CCFC0146B08F9F
:1042500098F80D307186A9EB43028242CEDC00BF94
:10426000A9EB4301814267D809EB4301814263D343
:1042700006F114025BE000BFC2F1010088F81900EA
:10428000C6F878A086F815B000F0C0FC98F80D10BC
:10429000B08F86F80FA009EB41014FF4FA622F238B
:1042A00040F2FF77009700F09DFC0146B08F98F830
:1042B0000D307186A9EB430282427FF736AF7178E9
:1042C00098F81930C1F101079F421AD1B8F84E0091
:1042D000B8F83030984205D8707E18B94FF47A702B
:1042E000B0870EE0C6F878A086F815B088F81910E7
:1042F00000F08CFC98F80D10B08F86F80FA0A9EB99
:104300004102002140F2FF732F27009700F06AFC62
:104310000146B08F98F80D307186A9EB43018142B8
:104320000AD809EB4301814206D306F10F02B16FAF
:104330000020708610701FE0708EB16FE0B1B1F593
:104340007A7F88BF86F817A0652903D3C72898BF4E
:1043500086F817A071799F2803D8002918BF86F81E
:1043600017A0727B72B10309182B98BF86F817A0AB
:1043700098F803307BB921E086F817A06529E5D2CB
:10438000E8E700BF95288CBF0A23642388F8113022
:1043900098F8033093B1642498F811706243F37D68
:1043A00001327A439A4209D2FDF716FD00F02EFC45
:1043B0006620A6F83AA0F07573E000BF21B11D2871
:1043C0002AD8A6F83AA03BE0B17A002968D0317823
:1043D000002945D0D8E914732F2140F2FF720097CD
:1043E00000F000FC48F2007298F80710C0F2933217
:1043F00092FBF0F04908728E90FBF1F02E2AF084C7
:1044000036D840F26400C2F20000A6F83AA0C0F824
:1044100000A0C6F860A044E01E2801D11E200FE0D5
:1044200098F80C1001EB81018A00824208D91E2104
:104430002F23A027009700F0D5FB0146708E7187CF
:1044400098F80C1001EB81018900814229D84FF4C2
:10445000FA62A0234FF4FA67009700F0C3FB1FE055
:10446000376E4EF200043846C4F2F94406E000BF4D
:10447000376E4EF200043846C4F2FF44214602F083
:10448000BAF8002818BF3C46204602F0D5F90021B2
:1044900070873846C4F2402102F09FF808B93020F6
:1044A0007087707ED0B3708F3128C0F0B580317FB7
:1044B000002900F0B180882800F2D28086F818B078
:1044C00000F0A4FBFDF7CEFCFDF7F4FB98F8071015
:1044D00041F65832B2FBF1F340F22A32708FB2FB50
:1044E000F1F730217822009700F07CFBA8F84A0011
:1044F00080B2FEF7FBFCB8F84A004FF41671B1FB2E
:10450000F0F1B428A6F854108EBF4FF6FF704FF4A8
:10451000B47148437067B07C29E500BF706F48F202
:10452000A062C0F20102317E92FBF0F04CF6CD4267
:10453000484300EB4000400081B2CCF6CC42A1FBE6
:10454000021298F80F10A6F85400D008A6F85E00E2
:1045500069B1B8F84210B8F84420B8F84630B8F855
:10456000487080B2009700F03DFBA8F8400096F834
:10457000220098F8051088420AD9B8F8483001F1AD
:1045800014025B08CDF800B000F02CFBA8F8400046
:10459000B06FB8F84E1064284FF00C000DD3B1F591
:1045A000FA7F0AD8F06E64214FF4FA7204230C27C4
:1045B000009700F017FBB8F84E10642938BF0220AE
:1045C000B8F81E1088F816008908E0299CBF400042
:1045D00088F81600707D002800F00E81307E0028DB
:1045E00000F00A8100F012FB1C20C4F201000168F7
:1045F00098F8180001F08041002877D0002977D181
:1046000096F82110013186F8211096F82010002923
:1046100040F0F28078E000BFF07800283FF49AACD8
:10462000B8F83E0098F80910B8F83C2000EB4101BA
:1046300013398BB25A43B2FBF0F2F187801A013082
:1046400042F61441A6F8520080B2C4F20101C1E959
:104650000800886200F030FD86F814B084E400BFE2
:10466000FDF728FB708FC8280CD95020A6F84CA065
:10467000A8F84A00FEF73AFCB6F84C0000287FF490
:1046800075AC08E0B8F84A00FEF730FCB6F84C000C
:1046900000287FF46BAC40F2105142F22830C2F295
:1046A0000001A6F818B086F815B0A8F84E00F0661C
:1046B0000860286030790A21002898F81500B16751
:1046C00086F814A088F81C001CBFB8F83A00A8F8B7
:1046D0003800FDF74FFE42F61441C4F201010868AC
:1046E00040F001000860B07CFFF741BC002987D191
:1046F000F17E0131CAB2032AF17628BF86F821A0E3
:1047000096F82010002977D196F8211070B398F808
:104710001A00814270D986F820B02868A6F84400B3
:10472000C5F800A0B8F84E1001EB410111FA80F075
:1047300098F81710C0F38F02B2FBF1F18208C1EBB9
:10474000D000A6F8400080B2401AA8F84E20F186AA
:104750002968814238D22968814235D2296881424C
:1047600032D229688142F3D32EE000BF98F81B00B3
:10477000814241D986F820B02868A6F84400C5F8DF
:1047800000A0B8F84E1001EB410111FA80F098F842
:104790001710C0F38F02B2FBF1F18208C1EBD00019
:1047A000A6F8400080B2401AA8F84E20F18600BF5B
:1047B0002968814208D22968814205D2296881424C
:1047C00002D229688142F3D3FDF7D4FDB06F31796D
:1047D000727A0130114386F821A086F81BA0B067D9
:1047E0006CD0142808D3B8F84E00B0F5FA6F03D88F
:1047F00086F815A0FEF716FD28684AF6C9718842AA
:10480000FFF4B4AB307E01287FF4B0ABF07D013013
:10481000F07500F0FBF9708F86F815B02F2898BF5F
:1048200086F818A0C6F878A02868A6F84400C5F84D
:1048300000A0B8F84E1001EB410111FA80F098F891
:104840001710C0F38F02B2FBF1F18208C1EBD00068
:10485000A6F8400080B2401AA8F84E20F18600BFAA
:104860002968814208D22968814205D2296881429B
:1048700002D229688142F3D3FDF77CFDB06F317914
:10488000727A0130114386F821A086F81BA0B06728
:104890000AD01428FFF46AABB8F84E00B0F5FA6FEE
:1048A00005D9FFF763BB00BF1F28FFF45FAB86F895
:1048B00015A0FEF7B7FCB07CFFF759BB1F2897D2B5
:1048C0009AE7000010B540F2625CC2F2000CDDF81D
:1048D00008E00C0A8CF80210110A8CF80310190A6F
:1048E0008CF804208CF805108CF806304FEA1E2155
:1048F0008CF808E04FF0000E072200238CF800002F
:104900008CF801408CF807105840C3B282EA430487
:10491000000658BF5C0082EA4400230658BF6000CE
:1049200082EA4003040658BF430082EA43001C06A3
:1049300058BF580082EA4003040658BF430082EA89
:1049400043001C0658BF580082EA4003040658BFC3
:10495000430082EA43001C0658BF5800BEF1080F0E
:1049600030D0C3B20CEB0E0044788078634082EA0A
:104970004304190658BF5C0082EA4401230658BF6D
:10498000610082EA41030C0658BF4B0082EA4301F2
:104990001C0658BF590082EA41030C0658BF4B0061
:1049A00082EA43011C0658BF590082EA41040B0603
:1049B00058BF4C0082EA44030EF1020E210658BF94
:1049C0006300A1E78CF8090010BD0000F0B540F2CB
:1049D0002045C2F20005A98811B10022AA805CE03E
:1049E00040F2AC41C2F20001097869B140F20851CD
:1049F000C2F20001096847F6FF7221EA0202B2F52D
:104A0000004F0BD1072244E040F20852C2F20002EC
:104A10004FF6FF71116007223BE000BF43F6FF72C3
:104A200021EA0202B2F5804F02D1062231E000BF36
:104A300041F6FF7021EA0000B0F5005F02D10522C7
:104A400027E000BF40F6FF7021EA0000B0F5805F6C
:104A500002D104221DE000BF40F2FF7021EA0000F5
:104A6000B0F5006F02D1032213E000BF40F2FF3027
:104A700021EA0000B0F5806F02D1022209E000BFF8
:104A800040F2FF1021EA0000A0F50070B0FA80F0BB
:104A90004209114141EA4221EA6081EA111282EAA7
:104AA000112246F6D27002F00F02C0F60000C1F3E8
:104AB000031442EA011241F31323045D82F00F0252
:104AC000C65C01F00F01A30210F801C002F00F0153
:104AD00043EAC637415C47EA4C1343EA010E2A61B8
:104AE000C5F814E0012540F224704E2225EA16157F
:104AF000C2F200005543C6F3C006456186EA95152B
:104B00005543C7F34046856186EA95155543C7F37B
:104B10000046C56186EA95155543C7F3C036056260
:104B200086EA95155543C4F30016456286EA951545
:104B30005543C4F3C00484EA951485625443C3F317
:104B40000035C46285EA94145443C3F3C02504635A
:104B500085EA94145443C3F3802383EA9413446393
:104B60005343CCF30014836384EA93135343CCF38D
:104B7000C007C36387EA93135343CEF3C01703649C
:104B800087EA93135343CEF38017436487EA931362
:104B90005343CEF34017836487EA93135343C1F31F
:104BA0000017C36487EA93135343C1F3C007036537
:104BB00087EA93135343C1F38007436587EA93134E
:104BC0005343C1F34007836587EA9313534301F0CE
:104BD000010181EA93115143016600210261C3651D
:104BE000C160F0BD80B5DDF808C08842B8BF084696
:104BF0009042C8BF1046A0EB010EACEB03000EFBC9
:104C000000F0511A90FBF1F0184480BD40F20040D2
:104C1000C4F20100016821F4001101604FF4001199
:104C20004161704710B54EF60C5CCEF2000CDCF81A
:104C30000030C3F3022E8EF00704042C28BF042496
:104C4000BEF103034FF0FF3E0EFA04F438BF002319
:104C5000A14399400EFA03F39A431143B0F1FF3F89
:104C60004FEA011110DD4EF20012CEF2000283185D
:104C700083F8001300F01F01012303FA01F140093A
:104C800042F8201010BD00BF00F00F006044017218
:104C900010BD00002DE9F04381B042F62848C4F26F
:104CA00001084FF47A60C8F80400EFF3108072B680
:104CB00040F26C50C2F20000007843F200094CF65A
:104CC000CD447925C4F200094AF6AA27CCF6CC4493
:104CD0000A26C8E90300C8F8140000BF023DA5FB7E
:104CE00004010809C9F80070FDF768F906EB5500E2
:104CF000C8F800000A20FEF70FF9022DEED8FDF7E4
:104D00006BF8002040F23E02C8F80000C2F2000238
:104D100040F2D6411288C2F200010880C8F804208F
:104D200062B601B0BDE8F0832DE9F04F81B043F2E7
:104D300000050320C4F20005FDF740F940F2D64714
:104D400040F272644AF6AA28C2F20007C2F20004D6
:104D50004FF00009002606E0013609F1340009F1A0
:104D60000209AE2868D2C5F8008004EB090090F86B
:104D700034B00021BBF1FF0F3980EDD090F8350041
:104D8000002849D04FF47A61F72210FB021049F253
:104D90008061C0F29801B1FBF0FA1FFA8AF001F0CD
:104DA00085FDB8462F460546F0B2C0EBC0100BEBB0
:104DB000400001F063FD06460020C4F27A40294617
:104DC0003D4647464AF6AA2801F028FC314601F044
:104DD000E5FD01F031FD43F60061C0F2490142F604
:104DE0002843B1FBFAF1C4F201030A221A6040F22F
:104DF0006C525960C2F200021278514344F6D35209
:104E0000C1F26202A1FB0212110AC3E90311596146
:104E1000FEF782F80026A0E7F0B2C0EBC01042F621
:104E200028410BEB40000026C4F20101C1E90366F2
:104E30004E61FEF771F890E7FCF7CEFF42F628428C
:104E40000020C4F2010240F23E011060C2F20001F3
:104E50000988516038804AF6AA20286001B0BDE870
:104E6000F08F000010B542F62844C4F201044FF45C
:104E70007A6060602820206040F26C50C2F200002E
:104E80000078C4E9030060610220FDF797F89620DE
:104E9000FEF742F843F20000C4F200004AF6AA21ED
:104EA0000160502020609620FEF736F8FCF794FF52
:104EB000002040F23E022060C2F2000240F2D641E1
:104EC0001288C2F200010880626010BD10B542F67F
:104ED0002844C4F201044FF47A60606032202060FC
:104EE00040F26C50C2F200000078C4E90300606137
:104EF0000220FDF763F89620FEF70EF843F200005B
:104F0000C4F200004AF6AA2101601E20206096200B
:104F1000FEF702F8FCF760FF002040F23E0220603E
:104F2000C2F2000240F2D6411288C2F200010880AB
:104F3000626010BD10B5EFF3108072B642F62844DF
:104F4000C4F201044FF47A60606043F20000C4F2DE
:104F500000004AF6AA2101605020206040F26C5007
:104F6000C2F200000078C4E9030060610320FDF78D
:104F700025F86420FDF7D0FF462020606420FDF76F
:104F8000CBFF282020606420FDF7C6FFFCF724FF3C
:104F9000002040F23E022060C2F2000240F2D64100
:104FA0001288C2F200010880626062B610BD000083
:104FB00070B542F62844C4F201044FF47A60606090
:104FC000EFF3108072B643F20005C4F200054AF612
:104FD000AA263C202E60206040F26C50C2F20000F5
:104FE0000078C4E9030060610120FCF7E7FF4B2073
:104FF000FDF792FF502020604B20FDF78DFF5A20D7
:1050000020604B202E60FDF787FFFCF7E5FE0020B7
:1050100040F23E022060C2F2000240F2D641128805
:10502000C2F200010880626062B670BD10B5EFF395
:10503000108072B647F63040C0F60000007842F6A5
:105040002844FF28C4F2010402D0FFF76DFE2BE0D4
:105050004FF47A60606040F26C50C2F20000007859
:10506000C4E9030060610320FCF7A8FF372020603B
:10507000C820FDF751FF0520FCF7A0FF2820206085
:10508000C820FDF749FF0620FCF798FF1920206093
:10509000C820FDF741FFFCF79FFE40F2D6410020FB
:1050A000C2F200012060088040F23E00C2F200001F
:1050B0000088606062B610BDB0B54FF0904001212D
:1050C00000224FF480634FF48064FEF7EDFA282548
:1050D000C4F600054FF09040012100224FF4007308
:1050E0002C604FF40074FEF7DFFA4FF0904001217E
:1050F00000224FF480732C604FF48074FEF7D4FAD2
:105100002C6005F576742046022100220223FEF76A
:10511000CBFA2046022100220123FEF7C5FA4FF008
:105120009040022100228023BDE8B040FEF7BCBAC7
:1051300070B5012A20DB531E032B02F0030C01D2B1
:10514000002211E022F0030E431C00228D5C9E1809
:105150008C1806F8015C65789D54A578043275704A
:10516000E4789645B470F1D1BCF1000F04D0535CE3
:10517000BCF1010F835401D170BD00BF531C5E5CB4
:10518000BCF1020FC65408BF70BD0232515C81549D
:1051900070BD0000B0B54425C4F20205286840F295
:1051A0000044C4F200042860204600F00FFF0120F4
:1051B000A0610B20206240F25800C2F2000001788A
:1051C0000022A1624FF6FF71E162616941F00101C5
:1051D000616140F28841C2F200010A7004F13401B9
:1051E0006262A96040F27051C2F20001E960406859
:1051F0006860E06840F40070E060206840F0010002
:10520000206040F68B102860B0BD0000B0B540F2C1
:105210000001C2F2000140F272600A78C2F200009E
:10522000427040F29442C2F200025478957852796A
:105230004B78013AB2FA82F25209C2745A1E91F8BE
:1052400002C0B2FA82F252090275ACF1010291F881
:1052500003E0013CB2FA82F2B4FA84F45209640920
:105260004275AEF1010244746C1EB2FA82F2B4FAD5
:1052700084F452098B796409827547F6004284747C
:10528000C0F60002B021C375BDE8B040AFF30080A6
:105290002DE9F04F03AF85B08346C81701EB90703E
:1052A000841020F00300073020F007009246ADEB99
:1052B00000088946C54640462146FBF797FFB9F1ED
:1052C000040F6FDB601E032804F0030C47F8204C2A
:1052D00002D200211DE000BF24F0030E08F10809EE
:1052E000002000210BEB00045BF80060A3686568F8
:1052F000E468043108EB000248F8006009EB00069E
:1053000049F800308E4500F1100046F8045CD46086
:10531000E8D157F8204CBCF1000F43D08800831C23
:10532000C21C1BF803301BF8022001301B041BF8C1
:10533000000043EA02621BF8213042EA00201844D0
:10534000BCF1010F48F821002CD0481C8200961CAB
:10535000D31C1BF806601BF80330013236041BF81F
:10536000022046EA03631BF8206043EA022232442B
:10537000BCF1020F48F8202014D0881C81008B1C3F
:10538000CA1C1BF803301BF8022001311B041BF858
:10539000011043EA02621BF8203042EA012119445D
:1053A00048F8201047F8144CFEF71EF85FEA8A50C0
:1053B00002D15046FDF750FF002047F8180C47F87F
:1053C0001C0C57F81C0C57F8141C884218D200BF4C
:1053D00057F81C0C57F81C1C0AEB800058F82110D9
:1053E000FEF712F80320FDF727FF57F81C0C0130D9
:1053F00047F81C0C57F81C0C57F8141C8842E7D3CC
:10540000A7F10C04A546BDE8F04FFDF71BBF000057
:10541000B0B54425C4F20205286840F2004440F0CB
:105420001000C4F200042860204600F0CFFD602088
:10543000A0610320206240F28840C2F2000041785F
:10544000A1624C21E16201210170606940F001001C
:10545000606104F13400A86040F22470C2F20000E0
:10546000E8601A206860286840F002002860286818
:1054700040F008002860286840F001002860E068DB
:1054800040F40070E060606C40F4004060642068AC
:1054900040F001002060B0BD40F2E400C2F2000024
:1054A00000781C21C4F202014860086840F0010045
:1054B000086070470B2828BF0B2040F26C51400059
:1054C000C2F200010870704780B542F20000C4F2D9
:1054D000020040F253110160FDF7B8FC00200121E9
:1054E000FDF784FB0120FDF753FC0128FAD10020D1
:1054F0001D21FDF783FC02200121FDF777FB00BF92
:105500001920FDF745FC0128FAD10020FDF738FBF2
:105510000020FDF751FB0020FDF740FB0120FDF7C7
:1055200059FB0220FDF7D0FCFDF7D8FC0228FBD187
:105530000020FDF74FFBBDE8804000F001B80000FF
:10554000B0B541F2040441F20025C4F20204C0F2F5
:105550007A05FDF7C3FC02280CD0002850D1206D3D
:1055600080054DD5E06A800144BF46F60045C0F293
:10557000DC2545E02068A16AC0F30040002919D469
:1055800021682268C1F38341C2F3417213010133E0
:10559000002A1A4608BF02220F2908BF1A4600280F
:1055A00002EB010020D140F60011C0F23D0100FBEA
:1055B00001F525E0A26AA36AC2F3031CA26A40F6C1
:1055C0000011C0F23D01C3F30823002802F00700D8
:1055D00003D02268920358BF294659430CFA00F0C1
:1055E000B1FBF0F50CE000BF2168890302D445430C
:1055F00006E000BF40F60011C0F23D0100FB01F5DE
:1056000040F2B830C2F200000560216803A2C1F385
:105610000311515C25FA01F10160B0BD00000000EA
:10562000000000000102030406070809F0B587B076
:105630000E20C0F218000121FDF7B8FB1220C0F2C5
:1056400014000121FDF7B2FB4FF4A0100121FDF77A
:10565000ADFB40F20010C0F2021040F20044069090
:105660004020C4F60004059005A92046FDF7DAFFA6
:105670002046062100220027FEF722F81C25C4F24E
:1056800002052846FDF7ACFD6E463046FDF752FD9B
:1056900040F2E400C2F20000007843F60004ADF8E6
:1056A0000A001020ADF8080040F26250C2F200007B
:1056B000C4F201040190201D00904FF4807003900B
:1056C00028463146ADF81070FDF744FD28684FF4C8
:1056D000E13140F0020028602868002240F0080014
:1056E00028602046002300F085FD2046012100F0BF
:1056F000D9FD2046012100F0C1FD2046012100F026
:10570000C7FD2046012100F061FD2046012100F087
:1057100067FD0A2003210022FFF784FA07B0F0BDDD
:105720002DE9F04F81B040F2944BC2F2000BBBF870
:105730002A0042F21172013081B29142ABF82A0084
:1057400047D3BBF82E40204601F0B0F80021C4F248
:10575000B43100F063FFDBF86810024608461146DA
:1057600000F086FE40F22341C2F200010A78CBF835
:105770006800032A0AD0022A16D0012A26D19BF8F3
:105780002200022200F500701AE000BFBBF84600BC
:1057900048F21F52C5F2EB12A0FB0202D00804220D
:1057A00062F31F2001220BE048F21F52E0B2C5F263
:1057B000EB12A0FB02024FF4C06040EA1210032279
:1057C00040F22443C2F2000318800A700020ABF8B4
:1057D0002A009BF81C0000284AD19BF81D000028D5
:1057E00046D0BBF8320018B10020ABF848003FE0CB
:1057F000BBF8480042F21172013081B29142ABF81D
:10580000480035D3BBF838001F2825D39BF80E007D
:1058100001218BF81C1018BB9BF8080000B3BBF8E3
:1058200046004DF2B9324108CBF21F12A1FB021221
:10583000D109B0F5B97F8BF80E1013D3002400BF47
:10584000FFF778FB6420FDF767FB9BF80E0001343F
:105850008442F5D306E000BF00208BF81D00C4E7AA
:10586000FFF768FB9BF81F0010B900208BF80900B8
:105870009BF80600A8B140F20001BBF84A00C2F252
:1058800000010979013082B201EB8101B2EB410FD5
:10589000ABF84A0005D901208BF813000020ABF8C3
:1058A0004A009BF81900002840F05C829BF81C001D
:1058B0004FF02F08002800F012819BF80520BBF85C
:1058C0003A0002EB820108EB0111814200F20781EC
:1058D0009BF8180050BBFCF77FFA9BF81500C8B97D
:1058E0009BF81800A0B9FCF745FD40F20000C2F299
:1058F000000042F21071A0F84E1040F22440C4F2B1
:10590000000041F28831C0F8001C01208BF818001B
:10591000FDF788FC01208BF8180040F20000C2F26D
:105920000000408E9BF80520ABF8300040F2000AE2
:10593000C2F2000ABBF83A00BAF83830BAF83E5062
:105940008921002A40F2FF7208BF2F210095FFF73E
:1059500049F90446BBF82A004CF6CD41CCF6CC41BF
:10596000484349F699114FEA7000C1F699118842EF
:10597000ABF83E4000F2AC809BF80B009BF818900F
:10598000002818BFB9F1000F4AD0BBF82E00BAF8B2
:1059900020106FF0630201FB020140F26402C2F2C8
:1059A0000002106CD2E90BCE956B431803FB0E532B
:1059B000956CD2F834E0AB42C8BF2B466D42AB4287
:1059C000B8BF2B460D1A0EFB0530D66C0CFB010040
:1059D00091620EFB05F5B042C8BF30467642B04238
:1059E000B8BF3046C2E90E35C2E9101000F046FFDC
:1059F00044F20001C4F21C6100F010FE00F01CFF34
:105A0000BAF82E10081ABAF8381002B28A42B8BF93
:105A1000084601B2A2B28A42B8BF2046AAF82E00B8
:105A2000B9F1000F54D09BF80400002850D040F288
:105A30006402BAF84E00BAF82210C2F20002966E62
:105A4000411AD2E91503156E741804FB0353156F40
:105A5000D46DAB42C8BF2B466D428E1BAB42B8BF64
:105A60002B4604FB0635116500FB0150556F66435C
:105A7000A842C8BF28466D42A842B8BF2846C2E91E
:105A80001836C2E91A1000F0F9FE44F20001C4F21F
:105A90001C6100F0C3FDDBF86410024608461146A5
:105AA00000F0E6FC0021C4F21631044600F08EFD41
:105AB00000281CBF0024C4F2163420460021CBF875
:105AC0006440002400F082FD002808BFCBF8644049
:105AD0009BF80900002804BF00208BF814009BF8F5
:105AE0000500BBF83A1000EB800008EB001088427C
:105AF00047D99BF8100060B1012803D1FFF7E6F900
:105B00009BF81000022808BFFFF7ACF900208BF8C3
:105B1000100040F20004C2F200046078002800F097
:105B20008F809BF81800002800F0A080207FA18CB7
:105B3000C0EB001001EB8000A0F13C010AB2B2F50D
:105B4000B47FA8BFA0F5D27101F1770002B2ABF823
:105B50004C10B2F5B47FA8BFA1F1F100ABF84E0034
:105B600001F1EF0002B2B2F5B47F9BF80520A8BFA7
:105B7000A1F17900012AABF8500004BF01208BF895
:105B800019009BF81450002D40F09B809BF80410E6
:105B9000DBF87800142222FA01F1BBF83E6088425B
:105BA0000FD240F20000C2F20000418E8E423CBF94
:105BB000ABF83E100E46C08E864284BFABF83E0066
:105BC000064640F20008C2F20008B8F840008642DB
:105BD00084BFABF83E0006469BF80B0030B1B8F925
:105BE0002E008642C4BF86B2ABF83E60DBF864404C
:105BF0000021204600F0F8FC28B9204600F01CFEE9
:105C00000644ABF83E6098F80E00002859D0DBF847
:105C10006C101E20B1F5FA7F88BF0A20BBF8301047
:105C2000B2B2531A834288F8130041DDB8F84E200F
:105C30000844B2F5FA7FABF83E003FD901203EE0C0
:105C40009BF8181000200029ABF83E0040F00481BA
:105C50009BF803200121002A8BF81510CBF878005F
:105C600000F0F480FDF794FCF6E000BF01208BF813
:105C700015009BF8030000250028ABF83E50CBF838
:105C800078508BF81B5000F0DB809BF80500002853
:105C90007FF44CAFE08F617A00EB41001338ABF832
:105CA0003E00FFF709FA01208BF814003EE700BF21
:105CB0008A1A8242C4BF081AABF83E00002088F856
:105CC00014009BF81C109BF81800002918BF00282E
:105CD0000ED11DB340F20002C2F20002BBF83E102A
:105CE000908FD28F00FB01F3B3FBF2F3D21A2AE0BC
:105CF000BBF83A103029ECD340F20004C2F20004A1
:105D0000A078B8B1E68FB4F84E0073086021C822BD
:105D10000096FEF767FFA0870DE000BFC0EB001004
:105D2000820040F20000C2F20000BBF83E10808FFB
:105D30000AE000BFA08FBBF83E1080B2E28F00FBEC
:105D400001F3B3FBF2F20132ABF8301042F634410A
:105D5000C4F20101ABF8522041F8080C90B2C1E93D
:105D600000008860DBF8740045F25651C5F25551C9
:105D70009BF8112050FB01F000EBD071CBF86C10B8
:105D80005AB3DBF878000B2827D340F21054C2F244
:105D900000042068FDF742FCDBF86C100A097C2A3D
:105DA00017D84A08904214D99BF80C2000200132E1
:105DB0008BF80C2040F20002C2F20002528ECBF8A7
:105DC00078008BF8180001208BF815005008ABF80C
:105DD000300000208BF8110021609BF81300B8B14F
:105DE000DBF868009BF82240BBF84650BBF82E60F9
:105DF00000F022FDBBF85470034620462946324687
:105E00000097FEF75FFDFFF747FB00208BF81300BC
:105E1000BBF8420040F6C412411C9BF81F00ABF8CF
:105E2000421010FB022288B2824206D29BF81C105C
:105E300081BB46F2A91188422CD201B0BDE8F08F97
:105E4000FBF7CAFFABF83E5070E600BF9BF81400AA
:105E5000002808BFFBF7C0FF9BF809009BF814500F
:105E6000002818BF002D3FF48EAEBBF83C104FF455
:105E70007A70FDF7D3FB00F57A7081B2B1F5FA6F55
:105E8000ABF83E0002D1FDF783FB7AE6FFF714F989
:105E900077E600BFFBF7A0FF42F634410020C4F2D2
:105EA0000101ABF81C00CBF838000860486088603E
:105EB00040F22441C4F200014860086040F2705092
:105EC000C2F200004FF48071FBF790F9FBF74CFD34
:105ED000062988BF7047DFE801F0050F19232D3729
:105EE000410000BF50F8203F02F0010123F0010201
:105EF00011430160704700BF50F8203F042101EAC0
:105F0000820123F0040211430160704750F8203FE2
:105F1000102101EA021123F01002114301607047C1
:105F200050F8203F402101EA821123F04002114342
:105F30000160704750F8203F02F00101090223F48C
:105F4000807211430160704750F8203F02F0010158
:105F5000890223F4806211430160704750F8203FAA
:105F600002F00101090323F48052114301607047DC
:105F7000062988BF7047DFE801F0051E091E0D1EC7
:105F8000150000BF50F8183F06E000BF50F8183F5A
:105F90000AE000BF50F81C3F082101EAC20123F0CB
:105FA000080206E050F81C3F02F00101C90223F488
:105FB0000062114301607047026801F0010122F0A4
:105FC000800242EAC11101607047000010B542F63C
:105FD000FF31C4F20101884216DD44F2FF31C4F200
:105FE00001010B248842C0F20C0425DC42F600417A
:105FF000C4F2010188423AD044F20001C4F2010126
:1060000088423FD1053432E040F20041C4F2000141
:10601000884221D041F20001C4F2000188421FD021
:1060200042F20001C4F2000188422BD10120C0F2EB
:106030001000C41D1BE000BF44F20041C4F2010186
:10604000884213D044F60001C4F20101884218BF0F
:1060500010BD07340BE000BF0124C0F2100406E0BD
:106060000120C0F21000C41C01E000BF063420462D
:106070000121FCF7AFFE20460021BDE81040FCF7EF
:10608000A9BE00BF10BD0000B0B540F2B044C2F2DE
:10609000000440F270602178C2F20000007800290C
:1060A00018BF00280ED140F2B141C2F200010978B8
:1060B000012911D000294ED1FCF756FFBDE8B040B0
:1060C000FFF768B840F28840C2F20000007898B14B
:1060D000BDE8B040FFF75EB8B0B140F28840C2F210
:1060E00000000078C0B3FEF771FCFCF7F5F9BDE8DD
:1060F000B040FFF74FB800BFFFF78AF9FEF766FC24
:10610000BDE8B040FCF7E8B940F2B240C2F200008E
:106110000078012803D1FCF7DFF9FFF73BF840F2E4
:10612000B340C2F200000078012812D1FCF72EFC27
:1061300040F22040C4F20000016821F00201016039
:10614000FFF728F84420C4F20200016841F004017E
:106150000160207820B1B0BDBDE8B040FFF758B96C
:1061600040F2C644C2F20004208840F27845C2F2F0
:10617000000548B9697839B940F2CC40C2F2000054
:10618000018801310180B0BD40F2CC4140F2DD53C5
:10619000C2F20001002298420A8038BFB0BD2989AE
:1061A000FDF73CFA2A78E97801323228C8BF00228C
:1061B000D0B233282A7005D321B9FEF76BFD4FF416
:1061C0008070288020882881B0BD0000426901F0DD
:1061D000010122F0800242EAC111416170470000D2
:1061E000C26801F0010122F4005242EA4131C1606B
:1061F000704700002DE9F04186B001AD0446284605
:10620000984616460F46FCF733FD43F6000105F1AC
:106210000C00C4F201018C4208BF05F108000068BF
:106220004CF6CD4100EB80004000B0FBF7F0CCF61F
:10623000CC41A0FB0112D10801EB8103A0EB43008C
:106240000428A0684FF0010388BF03EBD201C1EA24
:106250000000A060E06806F0010120F4805040EAF0
:106260000130E060206908F0030120F4405040EA6A
:106270000130206106B0BDE8F0810000C26801F085
:10628000010122F0040242EA8101C160704700006E
:10629000426901F0010122F0080242EAC1014161B4
:1062A00070470000C26801F0010122F0080242EAD2
:1062B000C101C160704700001CF0700F08BF0A46A2
:1062C0000FB403B42DE90C50FAF7BAFFBDE80C5037
:1062D000024603BC11680CF0405030EA814318BFFD
:1062E0004CF0804C4FEA4C034FEAD36323EA11236E
:1062F00010EA814F18BF23F0100341EA030101F0B7
:10630000E0734CEA030C11600CF00F030A2B1DBF65
:10631000082B0CF070034CEAC30C4FF4003304BF9D
:1063200033EA0C034CF4400C1CF0005F14D11CF059
:10633000805F0BD11CF0804F31D11CF0006F12D167
:1063400011F4807F0FBC47D000F0F7BD11F4806FCF
:106350000FBC2BD000F0F1BD11F4006F0FBC08BFD3
:10636000704700F0EABD11F4007F0FBC40F0E585F6
:106370001CF0400F1EBF4FF0004040F0010070477E
:106380001CF0100F14BF81EA030242400CF00F0012
:106390000A2808BF4FF0FF324FF000030FE011F45E
:1063A000805F0FBC08BF704700F0C7BD2CF0805C59
:1063B0001CF0800F14BF01F0004200F0004202F018
:1063C00000421CF0100F1DBF0FF28C0003C81143D8
:1063D000234808BF104370471CF0400F40F028804E
:1063E0001CF4404F1BD01CF4004F1CBF1946104634
:1063F0000CF4807218BF8CEA520C1CF0800F0CBF9A
:1064000040F4800041F400218CEADC0313F0100F0B
:106410001CBF2CF00F0C4CF0080C00F035BD1CF02C
:10642000100F1ABF0FA393E80300104800F02CBD13
:106430001CF0800F14BF01F0004200F000421CF07D
:10644000100F1BBF07A393E803000848114308BFC0
:10645000104300F019BD00BF000000000000F07FF5
:106460000000807F000000000000F87F0000C07F77
:1064700080EA400281EA410312F0FE4F18BF13F098
:10648000FE4F00F04E8090EA010F48BF81F00041BE
:1064900000F1D683421A3CBF801A89184FEAD052C5
:1064A000A2EBD1534FF0004C4CEA00204CEA012102
:1064B00021FA03FC10EB0C0C22D202F1FF325FEA4E
:1064C0001C2040EBC25038BF70471CF07F0F4FEAD2
:1064D000400C18BFBCF17F4F38BF7047C3F1200399
:1064E000994008BF20F00100BCF17F4F38BF7047D2
:1064F000A0F1C0404FF0010C4CF0805CFFF7DCBE17
:106500004FEA3C00000A40EBC25028BF1CF0FF0FCE
:106510004FEA400CE2D018BFBCF17F4F38BF704744
:10652000E6E74FF07F4C3CEA400218BF3CEA4102EC
:1065300036D090EA010F48BF81F0004100F1EC83B2
:10654000421A3CBF801A89184FEAD052A2EBD153AD
:10655000090219D04FEA002012F0FF0F1CBF40F0D3
:1065600000405B1EA4D108444FEA102040EAC2500C
:1065700010F4000F18BF70474FF0010200F05CBC30
:106580005FEA400C08BF00205FEA026C18BF70474A
:1065900030F0004C08BF70474FF0010200F04CBCD7
:1065A00010B500F08FFA00BF64FBBE3E010000048E
:1065B00010B500F011F90CBF0120002010BD10B57E
:1065C00000F00AF914BF0120002010BD10B500F042
:1065D00081F98CBF0120002010BD10B500F07AF9C0
:1065E0002CBF0120002010BD10B500F0A5F994BF0C
:1065F0000120002010BD10B500F09EF934BF01202D
:10660000002010BD401058BFC0F14040491058BF95
:10661000C1F140418142EFF3008070474FF47F0C9D
:106620001CEAD0121EBF1CEAD11392EA0C0F93EAA7
:106630000C0F00F0958090EA010F48BF42F4807281
:1066400040F4000C41F400002CF07F4120F07F402A
:1066500000B5A2EB030281420FF21E1CACEB504EC0
:106660009EF800E0C0F100004FEA4E0E00FB0EFC69
:1066700038BF49004FEA2C1C0CFB0EF34FEACE1E2C
:106680000EEB635E4FEA112C0EFB0CFC4FEAC121AE
:106690004FEA1C5300FB031102F5FA024FEA112CDA
:1066A0000EFB0CFC4FEA01314FEADC4C00FB0C11F5
:1066B00042EB2242C14228BF09184CEB03335DF87C
:1066C00004EB490018BF11EB000143EBC250B2F5D7
:1066D0007C0F38BF704731D512F0F00F08BF7047FC
:1066E00000F1C0400A0018BF4FF0804248BF4FF091
:1066F000404242F0040200F032BB00818283848574
:10670000868788898B8C8D8E8F9192939596979999
:106710009A9C9D9FA0A2A3A5A7A8AAACAEB0B2B315
:10672000B5B7B9BCBEC0C2C5C7C9CCCED1D4D7D904
:10673000DCDFE2E6E9ECF0F3F7FAFE004FEA400CAA
:106740000CF1807CBCF17E4F28BF7047A0F1C040A7
:10675000DFF880C0094218BF4CF0804CFFF7ACBD99
:106760000CEAD11390EA010F48BF42F480726245EF
:1067700038BF634511D25FEA410C22D05FEA400C7A
:1067800004BFD00570470FF2070C00F016BA4FEAAD
:10679000102C4FEA112061465AE710B500F092F92B
:1067A000097EFC3E0400000400F005B880EA010008
:1067B00000F00040704780EA010000F0004000F067
:1067C00028BA5FEA400C5FF824C018BF8CF0406C18
:1067D000FFF772BD0400001050EA010C00F10D80BB
:1067E0001CF5000F01D48842704710F5000F58BF08
:1067F00011F5000F13D4884270471CF5000F04D523
:106800005FEA4C0C18BF814270474FF0807C1CEB54
:10681000400F38BF1CEB410F01D28142704710B5C9
:1068200000F050F992244938090012044FF000504A
:106830004FF08051FFF7E6BE41000B0ED3F19E02F0
:1068400008D950F400034FEA032323FA02F048BFAB
:106850004042704710B500F035F900BF000000BF9E
:1068600048000304B0F14F4F04BF4FF000407047A1
:10687000DFF804C0FFF720BD4800020410F000411B
:1068800048BF4042B0FA80F310FA03F2C3F19D030F
:106890000BD051EAC35101EB1220530638BF7047A9
:1068A00000F1010008BF20F001007047B0FA80F34A
:1068B00010FA03F2C3F19D030AD0D90501EB1220AF
:1068C000530638BF704700F1010008BF20F00100F7
:1068D0007047000050EA010C00F10D801CF5000F1C
:1068E00001D48842704710F5000F58BF11F5000F12
:1068F00013D4884270471CF5000F04D55FEA4C0C96
:1069000018BF814270474FF0807C1CEB400F38BFAE
:106910001CEB410F01D28142704710B500F0D2F854
:106920000000003F09001304FFF76CBE4FF08050D9
:106930004FF00051FFF766BE50EA010C00F10D80E8
:106940001CF5000F01D48842704710F5000F58BFA6
:1069500011F5000F13D4884270471CF5000F04D5C1
:106960005FEA4C0C18BF814270474FF0807C1CEBF3
:10697000400F38BF1CEB410F01D28142704710B568
:1069800000F0A0F80000003F09001604FFF73ABE2F
:106990004FF000504FF08051FFF734BE4FF47F0CA2
:1069A0001CEAD0121EBF1CEAD11392EA0C0F93EA24
:1069B0000C0F00F0558090EA010F48BF42F480723E
:1069C0004FF0004C4CEA00204CEA012102EB03029C
:1069D000A0FB0113A2F50002002918BF43F0010338
:1069E0005B0028BF4FEA330342EB22425FEA132CDD
:1069F0004CEBC2502EBFBCEB436FB2F57C0F70471F
:106A00004FEA036CBCF1004F08BF20F00100B2F563
:106A10007C0F38BF704717D582F0FF0212F5803F18
:106A2000C8BF704700F1C0401A0609D04FF00042BD
:106A3000B2EB036F08BF5B0822EA036242F08042B8
:106A400042F0030200F08BB900F5000C5FEA4C0C39
:106A500048BF7047A0F1C040DFF864C0FFF72CBC0E
:106A60000CEAD11390EA010F48BF42F480726245EC
:106A700038BF63450AD25FEA400C12BF5FEA410C9F
:106A8000D0057047AFF2BB0C00F097B810B500F01E
:106A900019F800BF8900013E0300000400F005B8AA
:106AA00000F007B85FEA410C06D080EA010000F070
:106AB000B0B85FEA400CF8D15FF824C0FFF7FCBB28
:106AC000030000100EF1020E2EF0030E5EF8044BD0
:106AD0004FEA400212F1807218BFB2F5000F22D3C4
