:020000040800F2
:10100000980D0020511200081D170008ED16000869
:1010100019170008D9150008611A0008000000001F
:10102000000000000000000000000000951700080C
:10103000E9160008000000002117000899170008B1
:101040006B1200086B1200086B1200086B1200088C
:101050006B1200086B1200086B1200086B1200087C
:101060006B1200086B1200086B120008F9150008DB
:101070006B1200086B120008251600086B1200089E
:10108000691600086B1200086B1200086B1200084A
:101090006B1200086B1200086B1200086B1200083C
:1010A0003D1900085D190008751900086B12000849
:1010B0006B120008911900086B1200086B120008EF
:1010C0006B1200086B1200086B1200086B1200080C
:1010D0006B1200085D1A00086B1200086B12000802
:1010E0006B1200086B1200086B1200080000000071
:1010F00000000000000000000000000000000000F0
:10110000000000006B1200086B12000800000000D5
:101110006B1200086B1200080000000000000000C5
:101120006B1200086B1200086B1200086B120008AB
:1011300000000000000000000000000000000000AF
:101140000000000000000000000000006B1200081A
:101150000000000000000000DD1500086B12000810
:101160000000000000000000000000006B120008FA
:1011700000F002F800F05CF80AA090E8000C82444D
:101180008344AAF10107DA4501D100F051F8AFF22A
:10119000090EBAE80F0013F0010F18BFFB1A43F055
:1011A0000103184760610000806100000A444FF0AD
:1011B000000C10F8013B13F0070408BF10F8014BB6
:1011C0001D1108BF10F8015B641E05D010F8016BFB
:1011D000641E01F8016BF9D113F0080F1EBF10F85F
:1011E000014BAD1C0C1B09D16D1E58BF01F801CB82
:1011F000FAD505E014F8016B01F8016B6D1EF9D505
:101200009142D6D370470000002300240025002619
:10121000103A28BF78C1FBD8520728BF30C148BF59
:101220000B6070471FB505F07DFE1FBD10B510BDEA
:1012300000F060F81146FFF7F5FF02F081FE00F0C4
:1012400097F803B4FFF7F2FF03BC00F0FDF80000CD
:101250000948804709480047FEE7FEE7FEE7FEE74A
:10126000FEE7FEE7FEE7FEE7FEE7FEE70448054986
:10127000054A064B704700009D17000871110008D1
:1012800098070020980D0020980900209809002058
:101290004FF0000200B5134694469646203922BF0F
:1012A000A0E80C50A0E80C50B1F12001BFF4F7AF5A
:1012B000090728BFA0E80C5048BF0CC05DF804EB3C
:1012C000890028BF40F8042B08BF704748BF20F8AA
:1012D000022B11F0804F18BF00F8012B70477047A8
:1012E0007047704700487047C403002000487047AB
:1012F000C00300207546FFF7F9FFAE4605006946BA
:10130000534620F00700854618B020B5FFF7AEFF22
:10131000BDE820404FF000064FF000074FF00008F6
:101320004FF0000BAC46ACE8C009ACE8C009ACE833
:10133000C009ACE8C00921F007018D4670470000E4
:101340001FB584B000200A9C06AB04AA02A9009431
:10135000AFF3008018B1DDE9020108B010BD034809
:10136000204000F00EF800200146F6E70000207C47
:1013700010B50446AFF300802046BDE81040FFF7EB
:1013800060BF10B500F00AF8BDE81040AFF3008070
:10139000002801D000F058B87047000010B50228AE
:1013A00003D0410103D50DA112E0002010BD0101C1
:1013B00001D50FA10CE0C10001D511A108E0810009
:1013C00001D512A104E0400001D513A100E00021E5
:1013D00015A000F03FF8012010BD0000496E7661B5
:1013E0006C6964204F7065726174696F6E000000F3
:1013F000446976696465204279205A65726F0000FD
:101400004F766572666C6F7700000000556E6465FC
:1014100072666C6F77000000496E657861637420B6
:10142000526573756C7400005349474650453A2025
:1014300041726974686D657469632065786365706D
:1014400074696F6E3A20000001491820ABBEFEE7B8
:101450002600020070B505460C460A2000E06D1C0F
:1014600000F011F835B128780028F8D102E0641CAA
:1014700000F009F814B120780028F8D1BDE87040D8
:101480000A20AFF3008008B569468DF800000320FC
:10149000ABBE08BD7047000040F26050C2F20000D1
:1014A000818840F2EC42C2F200021180018840F2D1
:1014B000F042C2F200021180408840F2F241C2F2D2
:1014C0000001088070470000F0B587B042F2004488
:1014D0004FF4A0100121C4F2010401F0DFFC0B2045
:1014E00002210022002703F0F9FC0825C4F20205BE
:1014F000284601F0F5FE02AE304601F095FE0320CD
:10150000C0F20010CDF8120040F26050C2F20000AC
:10151000039004F14C00029040F20110C0F201204F
:10152000CDF8160028463146ADF8107001F092FE55
:1015300028460221012201F0CBFE2846012101F0BC
:101540006DFE0920C0F21800012101F0A7FC022065
:1015500001F07EFB01AD284600F0BCFA40F201101C
:10156000C0F2003001902046294600F091FA204652
:1015700004210122032300F0D5FA2046052102228E
:10158000032300F0CFFA204610210322032300F0AA
:10159000C9FA012000F0FEFB20460721012200F0DD
:1015A000D9FB2046012100F0ADFA2046012100F0D0
:1015B000B3FA204600F092FA204600F095FA00288F
:1015C000FAD1204600F094FA204600F097FA00285D
:1015D000FAD107B0F0BD0000FEE7000040F2144071
:1015E000C4F201000168090358BF70474FF400219D
:1015F000016002F089BA0000B0B5022001F01CFEC3
:10160000012818BFB0BD0424C4F2020401252560DE
:10161000FFF742FF082001F00FFE012808BF2560F8
:10162000B0BD000010B544244FF40050C4F20204D1
:1016300001F002FE012807D14FF4805044F8400C1D
:10164000206820F001002060802001F0F5FD0128D5
:1016500018BF10BD4FF4805044F8400C206820F0B3
:101660000100206010BD000010B56C244FF4800014
:10167000C4F2020401F0E0FD012811D140F2B440AF
:10168000C2F20000007858B140F22040C4F20000DD
:10169000016841F0020101604FF4800044F8680CD9
:1016A0004FF4001001F0C8FD012809D14FF480105B
:1016B00044F8680C206820F00100206004F074FEFB
:1016C0004FF4000001F0B8FD012818BF10BD4FF421
:1016D000801044F8680C206820F001002060BDE80C
:1016E000104004F061BE000070470000FEE70000FB
:1016F00043F20000C4F2000045F2555101604CF67F
:10170000CC410160042141604FF47A6181604AF666
:10171000AA21016070470000FEE70000704700004A
:1017200070470000B0B545F20C40C4F201000168FA
:1017300040F2000421F001010160C2F2000440F215
:101740009445B4F84E00C2F20005B5F8461000EB1F
:10175000400008448008A4F84E0000F075FEB4F87C
:101760004E00A179C2085143AA7DC1EB5000002A66
:101770002987A5F8420008BF01F0E0FD40F21050B3
:10178000C2F20000016842F20F7291429CBF013127
:101790000160B0BD704700007047000041F20000DA
:1017A000C4F20200C16941F08051C16147F25001A9
:1017B000C4F200010A7842F004020A70C16921F003
:1017C0008051C161016841F0010101600168890730
:1017D0005FBF01685FEA817101685FEA817102D4CD
:1017E00001688907F2D5416821F00301416000BF1B
:1017F000416811F00C0F0BD0416811F00C0F07D0AD
:10180000416811F00C0F03D0416811F00C0FEFD1BB
:1018100001684FF6FF72CFF6F262114001600021BD
:10182000416041F61071C1624FF4801101634FF4C1
:101830001F0181604EF6085041F20001CEF2000017
:10184000C0F6000101607047F0B581B04FF4C010E0
:10185000012101F023FB0225C0F2180505F1090062
:10186000012101F01BFB40F20140C2F200400121C6
:1018700002F08CF842F64447C4F2010740F6B83053
:1018800047F8180C002040F6000447F81C0C46F6F8
:101890006800C4F2010447F82C0C682004F51056C7
:1018A00047F8280C30460021012204F0E3FC3046C2
:1018B0000221012204F0DEFC30460421012204F062
:1018C000D9FC3046012104F0F9FC3868642161F349
:1018D000070038602846012101F0E0FA681C012168
:1018E00001F0DCFA04F58065284608210422022371
:1018F00002F030F8284608210422012302F02AF8D9
:10190000204608210422802302F024F820460821E2
:1019100004224FF4806302F01DF8204608210422BF
:101920004FF4007302F016F82046082104224FF409
:10193000807301B0BDE8F04002F00CB844F61040EE
:10194000C4F201004FF6FE71016042F61040C4F28D
:1019500001000021016004F057B8000045F21000BA
:10196000C4F201004FF6FE7101604FF6FD71016097
:101970007047000045F21040C4F2010000210160F0
:1019800042F61040C4F201000160FFF7CBBE000038
:1019900040F21040C4F200000168890744BF4FF6CE
:1019A000FD7101600168C9071CBF4FF6FE7101603F
:1019B0007047000070B50320C0F21800012101F04B
:1019C0006DFA0120C0F21C00012101F067FA4FF40A
:1019D000C010012101F062FA40F20230C3F210009F
:1019E000012101F0D3FF40F20240C2F20840012180
:1019F00001F0CCFF4FF4A010012101F04FFA40F2AA
:101A00000045C4F2000505F5843420460021042277
:101A10001023102601F09EFF6C20C4F2020040F655
:101A20008A1101604EF20010CEF2000080F81063BF
:101A30004FF4803101604FF6FF70E862AE622868B3
:101A4000002140F08000286020460422102301F08D
:101A500081FF286840F00100286070BD70470000D9
:101A6000FEE700004EF60C50BFF34F8FCEF20000A1
:101A70000168042201F4E061C0F2FA5211430160EE
:101A8000BFF34F8F00BF00BF00BF00BFFAE70000E9
:101A90000A78436802F0010223F4807343EA0222C9
:101AA00042604A78836862F3410383608A7883687E
:101AB00002F0010223F4006343EAC2228260C97883
:101AC000C26A013901F00F0122F4700242EA0151A9
:101AD000C16270474FF0807101607047816841F0CA
:101AE00008018160704700008068C0F3C000704743
:101AF000816841F004018160704700008068C0F394
:101B000080007047826801F0010122F4807242EA8D
:101B10000121816070470000826861F300028260E9
:101B200070470000B0B5112900F29780DFE801F09E
:101B30000A0E181C2024282C303A444C56606A7433
:101B40007E8800BF84465CF8104F38E084465CF81D
:101B5000105F382404EAC30E25F0380379E000BF93
:101B600084465CF8104F3CE084465CF8104F42E03D
:101B700084465CF8104F48E084465CF8104F4EE015
:101B800084465CF8104F54E084465CF8104F5AE0ED
:101B900084465CF8104F03F007034FEA036E24F00D
:101BA000E06356E084465CF8104F03F007034FEA09
:101BB000C36E24F060534CE084465CF80C4F03F095
:101BC000070E24F0070344E084465CF80C4F3825E8
:101BD00005EAC30E24F038033BE000BF84465CF8FE
:101BE0000C4F03F007034FEA831E24F4E07330E048
:101BF00084465CF80C4F03F007034FEA432E24F4AD
:101C0000606326E084465CF80C4F03F007034FEA5C
:101C1000033E24F4E0431CE084465CF80C4F03F0E0
:101C200007034FEAC33E24F4603312E084465CF8B5
:101C30000C4F03F007034FEA834E24F4E01308E04F
:101C400084465CF80C4F03F007034FEA435E24F42C
:101C5000600343EA0E03CCF80030013A0F2A88BF34
:101C6000B0BDDFE802F0090D1115191D2125292D40
:101C7000313D49535F6B00BF50F8342F3EE000BF49
:101C800050F8342F44E000BF50F8342F4CE000BF30
:101C900050F8342F54E000BF50F8342F16E000BF46
:101CA00050F8342F1EE000BF50F8302F26E000BF60
:101CB00050F8302F2CE000BF50F8302F34E000BF38
:101CC00050F8302F3CE000BF50F8302F4FF0F87341
:101CD00003EA015122F0F87211430160B0BD00BF68
:101CE00050F8302F4FF0785303EA416122F07852D8
:101CF00011430160B0BD00BF50F82C2F01F01F014F
:101D000022F01F0211430160B0BD00BF50F82C2F1C
:101D10004FF4787303EA411122F4787211430160A1
:101D2000B0BD00BF50F82C2F4FF4F84303EA8121D7
:101D300022F4F84211430160B0BD00BF50F82C2FCF
:101D40004FF4782303EAC13122F478221143016071
:101D5000B0BD00008368072923F0007388BF03F13A
:101D600000738360836802F0010261F35343836070
:101D7000816821F4801141EA0251816070470000BE
:101D8000826801F0010122F4800242EA81518160FF
:101D90007047000042F20841C4F201010A6800F0F5
:101DA000010022F4000242EAC050086070470000BF
:101DB0002DE9F04140F2000CC2F2000C40F2944ECA
:101DC0009CF81920C2F2000EBEF84E00D2B1431E9C
:101DD00018B2002848BF40F26713BEF85000AEF8B2
:101DE0004E30421E10B2002848BF40F26712BEF8C3
:101DF0005200AEF85020013801B2002948BF40F22D
:101E0000671019E0431C18B2B0F5B47FA8BF0023D7
:101E1000BEF85000AEF84E30421C10B2B0F5B47FA0
:101E2000A8BF0022BEF85200AEF85020013001B227
:101E3000B1F5B47FA8BF0020AEF8520040F2E60E24
:101E400019B2C2F2000E3EF91140BCF84C30BCF899
:101E50003E101C4444F6D3584C43C1F2620854FB74
:101E600008F4E6119CF8085006EBD47646F2676455
:101E70006E43C6F2666456FB04F6B71007EBD677DE
:101E800042F63446C4F20106376012B23EF912201F
:101E900000B21A444A4352FB08F2D71107EBD27240
:101EA0006A4352FB04F2971007EBD27272603EF95C
:101EB00010001844484350FB08F0C11101EBD070EA
:101EC000684350FB04F0811001EBD070B060BDE8B6
:101ED000F0810000F0B581B040F60004C4F20104C6
:101EE00004F580652846102104220223022601F011
:101EF00031FD40F61447C4F20107204610210422A8
:101F00004FF480633E604FF4806601F023FD284665
:101F10001021042201236661012501F01BFD2046EA
:101F2000102104224FF400733D604FF4007501F05E
:101F300011FD20461021042280236561802501F0D7
:101F400009FD2046102104224FF4807365614FF48F
:101F5000807501F0FFFC656101B0F0BD70B540F225
:101F60000105C2F20005287840F60004C4F201041D
:101F7000002804F5806005D008210422022301F026
:101F8000E9FC0AE0102104220223022601F0E2FC0F
:101F900040F61440C4F201000660204608210422E5
:101FA0004FF4806301F0D6FC287838B104F58060E6
:101FB00008210422012301F0CDFC0CE004F580602F
:101FC000102104220123012601F0C4FC40F6144034
:101FD000C4F2010006602046082104224FF4007379
:101FE00001F0B8FC287838B120460821042280236B
:101FF00001F0B0FC08E000BF20461021042280233D
:10200000802501F0A7FC65612046082104224FF4D9
:102010008073BDE8704001F09DBC000040F21C03DD
:10202000C2F200031A7842F20040C121C4F200005B
:10203000042AC4F2000101D0012A03D101F11002E7
:1020400002601A78052A01D0022A03D101F1200288
:1020500002601A78062A03D0032A08BF016000E054
:10206000016040F2180140F20840C2F20001C4F2DF
:1020700001000A7801683AB121F400210160416849
:1020800041F400214160704741F400210160416842
:1020900021F400214160704742F2004CC4F2000C70
:1020A000DCF8003001F001016FF4803200280CBF31
:1020B0006FF00102090403EA02000843CCF80000B3
:1020C00070470000F0B581B00138052800F2B981F1
:1020D000DFE800F004185694BCE800BF40F20100AD
:1020E000C2F20000007840F60004C4F201040028A7
:1020F00004F5806000F0EE8008210422022301F044
:1021000029FCF2E040F60004C4F2010404F5806505
:102110002846102104220223022601F01BFC40F66F
:102120001440C4F2010006602046102104224FF43E
:1021300080634FF4806601F00DFC284610210422D4
:1021400001236661012501F005FC204610210422CF
:102150004FF40073C4F810544FF4007501F0FAFB0B
:1021600040F201006561C2F200000078002800F032
:10217000D980204608210422802301F0EBFBE3E014
:1021800040F60004C4F2010404F5806528461021DD
:1021900004220223022601F0DDFB20461021042246
:1021A0004FF48063C4F810644FF4806601F0D2FBF2
:1021B00028461021042201236661012501F0CAFB93
:1021C00040F61440C4F201000560204610210422AC
:1021D0004FF400734FF4007501F0BCFB40F20100B6
:1021E0006561C2F200000078002800F0A58020465A
:1021F00008210422802301F0ADFBA5E040F6000495
:10220000C4F2010404F5806528461021042202234B
:10221000022601F09FFB2046102104224FF4806328
:10222000C4F810644FF4806601F094FB40F20100A2
:102230006661C2F200000078002800F08F80284616
:1022400008210422012301F085FB93E040F60004FD
:10225000C4F2010404F5806540F6144628461021B6
:1022600004220223C4F20106022701F073FB204678
:10227000102104224FF4806337604FF4806701F02F
:1022800069FB40F201006761C2F20000007800289B
:1022900000F08080284608210422012301F05AFB27
:1022A00080E000BF40F20100C2F20000007840F67A
:1022B000000440F61445C4F20104C4F201050028EC
:1022C00004F5806000F08A8008210422022301F0D6
:1022D00041FB8AE0102104220223022501F03AFB8F
:1022E00040F61440C4F20100056020460821042293
:1022F0004FF4806301F02EFB04F58060102104226E
:102300000123012501F026FB2046102104224FF471
:102310000073C4F810544FF4007501F01BFB6561A5
:102320002FE000BF2046102104228023802501F0E9
:1023300011FB656108E000BF2046102104228023C4
:10234000802501F007FB65612046082104224FF437
:10235000807301B0BDE8F04001F0FCBA28461021BE
:1023600004220123012501F0F5FA40F61440C4F2DD
:10237000010005602046082104224FF4007301F09B
:10238000E9FA2046102104228023802501F0E2FA98
:10239000656116E02846102104220123012501F081
:1023A000D9FA35602046082104224FF4007301F069
:1023B000D1FA2046102104228023802501F0CAFA98
:1023C00025612046102104224FF480734FF480755C
:1023D00001F0C0FA656101B0F0BD00BF1021042218
:1023E0000223022601F0B6FA2E60204608210422BC
:1023F0004FF4806301F0AEFA04F5806010210422EE
:102400000123012601F0A6FA2046102104224FF4F0
:1024100000732E604FF4007501F09CFA20461021E5
:10242000042280236561802501F094FA2046102162
:1024300004224FF4807325614FF4807501F08AFA0D
:10244000656101B0F0BD00002DE9F04381B040F2BC
:102450000000C2F2000040F21059017FC2F20009F0
:10246000B0F84E2009F1080303EB410323F8022CD6
:10247000B9F80820B9F80A30B9F80C701A44B9F85C
:102480000E303A44B9F810701A44B9F812303A4490
:10249000477E1A4440F294465208C2F20006012FC9
:1024A000B2670BD10131CAB2072A017722BF0121DD
:1024B0000177B17401F001020AE000BF01390A0698
:1024C000017703D1062101220177B27401228A43E8
:1024D00045F22404C4F20104027600202060707DDD
:1024E00010B9C8B2FFF7EEFD2068F084FFF796FD43
:1024F000306FB0F5FA6F05D93079717A08431CBF97
:102500000120B075F07A00210028A6F8211055D0DE
:10251000707E002852D040F26407B06F318DC2F255
:102520000007BB69411AD7E901023C695D1805FB48
:1025300002423D6AFC68D6F86480AA42C8BF2A46B7
:102540006D42CB1AAA42B8BF2A4604FB0325396064
:1025500000FB01507D6A6343A842C8BF28466D4214
:10256000A842B8BF2846C7E90423C7E9061004F00B
:1025700015FB44F20001C4F21C6104F0DFF90146CE
:10258000404604F005F90021C4F2FA41044604F083
:10259000ADF900281CBF0024C4F2FA4420460021F3
:1025A0004FF0000804F0B7F9002818BF0024D9F84C
:1025B00000007466632898BFC7F8108001B0BDE8BA
:1025C000F08300002DE9F04F8FB040F27451C2F259
:1025D00000010B68D1F87CE04FF24740AEEB0307F7
:1025E000CFF6FF7010FA87F040F2CE7640F2204925
:1025F000B042C2F20009A9F8067000F2AD81D1E93B
:102600000176D1E90354A7EB030AA81BD1E90536EB
:10261000CD690D90181B01F120080C90A81B98E8BB
:10262000FC010B90D1E90F0C9A1A0A922A1BA0EB1D
:1026300008000992BA1B0590D1E912604D6C801B0D
:102640000690D1E914700892A5EB0C02D1E916545A
:10265000C01B0490601B0E90D1E91840D1E91A5BB1
:10266000001B0390ABEB0500D1E91C540290631BE7
:1026700048F689050D98C8F688050792AAFB052833
:10268000A0FB052A0C9A896FA2FB052B0B9AAEEBD7
:102690000101A2FB05200A9A0190A2FB0526099AD6
:1026A000A2FB052C089AA2FB052000900598A0FB30
:1026B000052008900798A0FB052706980B97A0FB1C
:1026C000052E0498A0FB052403980C94A0FB05207C
:1026D00007900298A0FB05200990A3FB05200A9013
:1026E000A1FB05200E99B309A1FB0525AA094FEA14
:1026F0009C1183EA98160D90C9F84420820986EA55
:10270000971681EA9A17009887EA9E17C9F854200D
:10271000BF008009089A47EAC60780EA9B16DDF8E1
:1027200004C086EA9416920947EA460682EA9C1794
:1027300087EA9515079C35430895A509099C0790DC
:10274000A6090A9CC9F84C60B600C9F830000B987D
:10275000C9F8485046EAC505A409C9F8504045EAF9
:1027600044054FEA98140A92C9F834204FEA9018A9
:102770000D9840F2B14640F274624FEA9A17C2F2E5
:102780000006C2F200020397C9F81C704FEA9B17BB
:102790000991C9F82C104FEA9E1145EA901E96F84F
:1027A00000B092F800A00C980497C9F820704FEA86
:1027B0009C174FEA901C5AEA0B05C9F81840059778
:1027C000C9F824700693C9F82830C9F83880C9F8C8
:1027D0003C10C9F840C05DD140F60845C4F201057F
:1027E0002D68ED0656D599F8025037460135EEB200
:1027F000652E3E4689F802504CD301251570CEF166
:102800000F0E08988EEA00073F064DD10698B9F8DA
:102810000830820142EA8422039842EA880242EAAE
:102820004020099A40EA421040EA410004990022FF
:1028300040EA0120079940EA0110059940EA0C009E
:1028400040EAC1100A9940EAC10140F2D840C2F200
:10285000000002800E9A581C783A772AA9F80800DE
:1028600005D840F2A840C2F20000012202703029CF
:1028700020DB40F2D240C2F20000018040F27560DD
:10288000C2F200000021017089F800100FB0BDE80D
:10289000F08F00BFBAF1000F18BFCEF10F0E0898ED
:1028A0008EEA00073F06B1D0B9F80A000130A9F856
:1028B0000A0051E0012911DB40F2D240C2F20000CF
:1028C0000022028040F27560C2F20000CBB20170BB
:1028D000BBF1000F18BF002B3ED00BE000293FD00A
:1028E00040F27560C2F200000378BBF1000F18BF20
:1028F000002B31D040F2AD40C2F200000078002839
:102900002AD199F8010083421EBF89F801300020C6
:1029100089F80000052B07D399F800000130C1B2F7
:10292000062989F8000017D3591E0024142989F8B4
:10293000004000F29580DFE801F00B23279393938A
:102940002B3D515F936D717793939393938189009E
:1029500002F04CFC84E000BF0FB0BDE8F08F00BF78
:1029600040F2D240C2F200000021018040F27560C6
:10297000C2F20000017089F800100FB0BDE8F08FBE
:1029800002F072FC6CE000BF02F0E0FA68E000BF09
:1029900040F29540C2F200000021017040F219009F
:1029A000C2F200000121017040F2A540C2F2000015
:1029B000017055E040F29540C2F200000121017023
:1029C00040F21900C2F200000021017040F2A5405F
:1029D000C2F200000221017042E000BF40F29640C6
:1029E000C2F200000021017040F2CE40C2F20000AD
:1029F0003170018034E000BF40F29640C2F2000026
:102A00000121017040F2CE40C2F20000002101809D
:102A1000317025E002F064FD22E000BF012089F85A
:102A200003004FF4606004E0002089F8030040F6E2
:102A3000FF60A9F8040002F025F911E040F295408A
:102A4000C2F200000078C0F1010004E040F29540BD
:102A5000C2F20000007840F21901C2F200010870D1
:102A600040F27560C2F20000017840F29072C2F24A
:102A70000002117004700FB0BDE8F08F70B582B025
:102A800040F27455C2F20005D5E9000140F27652D9
:102A9000081AA0F2213140F278449142C2F20004B7
:102AA00036D86178D1B3E178002951D0217940F24C
:102AB000E14290420BD840F22602C2F20002138893
:102AC0000131C3EBC3031844C00821711080C8B2A0
:102AD0004C286BD340F22600C2F20000018800258A
:102AE000193101804FF61250CFF6FF7010FA81F0C5
:102AF00000EBD07040F276614008C2F2000181F82C
:102B00002000657002F0ECFC257102F007FB4DE03F
:102B100040F2CE40C2F200004CE000BF40F29641CD
:102B2000C2F20001097839B340F22A01C2F2000171
:102B30000A8890422ED940F22801C2F200010B8887
:102B4000511C4FF4FA661A4640F2E9332AE000BFFE
:102B5000A17840F2280600290CBFE080E08801310E
:102B6000C2F20006A170318880B200F0DDFD33288A
:102B70003EDB002060705CE040F2260140F228025B
:102B8000C2F20001C2F20002098812884FF4FA660C
:102B900007E000BF40F22601C2F2000109884FF4AD
:102BA0007A760023009602F079F9E06040F2D8408E
:102BB000C2F2000040F2D241C2F2000140F2E0064F
:102BC000E2680B88C2F200063668D51AB5424FF0AB
:102BD0000005058004DD9A190A8002B070BD00BFAF
:102BE000981AB042C8BF9A1B0A8002B070BD00BFDD
:102BF0003088D5E90012C0EBC000511A0844A17812
:102C0000C0083329308014D34FF62A111938CFF673
:102C1000FF71308011FA80F000EBD07040F27661E5
:102C20004008C2F2000181F821000120E07002F0AA
:102C3000A9FAE07831880028E180B7D0D5E9000111
:102C4000081A217940F2E14290427FF634AF3EE724
:102C500041F20401C4F202010A6860F38F320A6093
:102C60000A68C0F3830060F31C720A6070470000BA
:102C700041F20401C4F202010A6800F00F0022F0E0
:102C8000F00242EA001008607047000041F20401BF
:102C9000C4F202010A6800F0070022F4E06242EA8E
:102CA000002008607047000041F20401C4F20201F4
:102CB0000A6800F0070022F4605242EAC02008606F
:102CC0007047000041F25401C4F202010A68012871
:102CD00022F0300208BF30320A607047042888BFF3
:102CE0007047DFE800F0030D1B29330041F20000BC
:102CF000C4F20200026861F300020260704700BF84
:102D000041F20000C4F20200026801F0010122F465
:102D1000803242EA01410160704700BF41F2000089
:102D2000C4F20200026801F0010122F0807242EA5E
:102D300001610160704700BF41F20000C4F202006F
:102D4000026A61F300020262704700BF41F20000B4
:102D5000C4F20200426A61F300024262704700005E
:102D600070B541F20401C4F202010A68C2F38103A2
:102D700041F20022022BC0F27A020DD0002B4BD17F
:102D80000B6D9B0548D5CB6A9B0144BF46F60042BC
:102D9000C0F2DC2240E000BF0B688C6AC3F300463F
:102DA000002C17D40C680B68C4F38344C3F341733D
:102DB0001D010135002B2B4608BF02230F2C08BF35
:102DC0002B46234406BB40F60012C0F23D025A4394
:102DD00022E000BF8B6A8C6AC3F3031E8B6A40F645
:102DE000001CC0F23D0CC4F3082403F007031EB11D
:102DF0000D68AD0358BF94460CFB04F20EFA03F3C2
:102E0000B2FBF3F208E000BF0E68B60344BF40F621
:102E10000012C0F23D025A4302600B6812A6C3F3CF
:102E20000313F35C47F2EA26DA4042600B68C0F60F
:102E30000006C3F30223F35C22FA03F3C3600B68BA
:102E4000C3F3C223F35C0426DA4082600B6809688E
:102E500006EA9363C1F38131194407A3595CB2FBBD
:102E6000F1F1016170BD00BF000000000000000032
:102E7000010203040607080902040608020C0810F0
:102E800041F20002010CC4F20202895800F01F0056
:102E900021FA00F000F001007047000041F200024A
:102EA00000F01F034FF0010CC4F2020201290CFADA
:102EB00003F14FEA1040835814BF23EA010119437C
:102EC0008150704741F2000200F01F034FF0010CE7
:102ED000C4F2020201290CFA03F14FEA10408358B0
:102EE00014BF23EA010119438150704741F20402E3
:102EF000C4F20202136868B143F4803313601368AC
:102F0000012807BF23F400334FF0007043F400336F
:102F1000002002E023F4803300201360136861F383
:102F2000954313601368C1F3021161F35E7313607C
:102F3000916A21F0E06108439062704741F200001D
:102F4000C4F20200016841F00101016001688907D3
:102F50005FBF01685FEA817101685FEA817102D435
:102F600001688907F2D5416821F00301416000BF83
:102F7000416811F00C0F0BD0416811F00C0F07D015
:102F8000416811F00C0F03D0416811F00C0FEFD124
:102F900001684FF6FF72CFF6F26211400160002126
:102FA000416041F61071C1624FF4801101634FF42A
:102FB0001F0181607047000041F20401C4F2020168
:102FC0000A6860F301020A607047000041F20400E1
:102FD000C4F202000068C0F38100704745F224018A
:102FE000C4F2010100220A6007E000BF0A688242C1
:102FF00028BF70470A68824205D20A68824202D21C
:103000000A688242F2D3704745F22401C4F20101FA
:1030100000220A6043F698224A6051F8102C00EB17
:10302000800042F00102400041F8102C0A68824200
:1030300008D20A68824205D20A68824202D20A682D
:103040008242F3D39620486051F8100C40F0010002
:1030500041F8100C70470000F0B540F27454C2F211
:10306000000440F2884240F2B34E40F2B44C26686D
:10307000C2F2000244F62061C2F2000E0023C2F246
:10308000000C002051608EF800308CF8003002E017
:103090002833782B52D0E5186F68BE1B04D030441B
:1030A0008E423CBF56603146AE68F71B04D03844B0
:1030B0008F423CBF57603946EF68BE1B04D0304496
:1030C0008E423CBF566031462E69F71B04D038440F
:1030D0008F423CBF576039466F69BE1B04D03044F5
:1030E0008E423CBF56603146AE69F71B04D038446F
:1030F0008F423CBF57603946EF69BE1B04D0304455
:103100008E423CBF566031462E6AF71B04D03844CD
:103110008F423CBF576039466F6ABE1B04D03044B3
:103120008E423CBF56603146AE6AF51BB0D0284493
:103130008D423CBF55602946AAE700BF8409430978
:10314000222C93601AD88B1E042B17D240F2580001
:10315000C2F200004FF430530380012353708EF805
:10316000003040F2DC03C2F2000342F210774FF667
:10317000E8521F802023C0E9013225E0C009182849
:1031800022D8881F04281FD840F258030120C2F219
:1031900000038EF8000018700320507040F22440A5
:1031A000C4F200004FF6FF71016040F2DC01C2F290
:1031B000000142F210770F8020212C2059605168C5
:1031C00058704FF6E8509860A1F11F00B0F59C4F81
:1031D00010D801208CF8000040F25800C2F2000024
:1031E0007722027040F2DC02C2F200022323138035
:1031F000022242604FF0000021B144F62062914269
:1032000018BF012040F2B242C2F20002107045F233
:103210003400C4F201000160F0BD0000026861F3F7
:10322000000202607047000000210182C0E9001125
:10323000C0E90211704700000021C4F20201B0F1A0
:10324000805F88BF01F580610968084018BF0120D0
:103250007047000002684BF6EF731A4002600A895B
:1032600003681A4302604A7C036802F0030223F4F5
:10327000405343EA02320260CA7B036802F0030251
:1032800023F4406343EA822202608A7B036802F0EF
:10329000030223F4407343EA022202604A7B03687C
:1032A00002F0010223F0800343EAC21202600A7BAB
:1032B000036862F3861303600A7C036862F34513B4
:1032C00003604A8942600A6882604968C160704749
:1032D000002A02680CBF22EA010111430160704715
:1032E000016821F0010101600021016041608160FD
:1032F000C16040F2FF4100EA01020421B2F5816F92
:10330000C4F2020105D3D208902A88BF704701F5A4
:1033100080616FF0070252FA80F04CF6CD42CCF695
:10332000CC42A0FB02026FF0030000EA92000F22E1
:103330000B6802FA00F018430860704740F2004042
:10334000C4F20100016841F40021016070470000EF
:1033500042F20C01C4F202010860704742F2100010
:10336000C4F20200016841F0800101607047000072
:1033700042F20C01C4F202014A6842F002024A60C1
:103380008860486840F0400048600868C0070DD178
:103390000868400746D40868C0064FF0020058BFCE
:1033A00003204A6822F002024A6070474FF08042D0
:1033B0000868C00700F08B800868C00738D008682C
:1033C000C0073BD00868C0073ED00868C00741D09E
:1033D0000868C00744D00868C00747D00868C0071D
:1033E0004AD00868C0074DD00868C00750D00868A8
:1033F000C00753D00868C00756D00868C00759D026
:103400000868C0075CD00868C0075FD00868C007BC
:1034100068D0103ACCD104204A6822F002024A60F7
:10342000704700BF01204A6822F002024A607047DC
:10343000013A086840074DD558E000BF023A0868D5
:10344000400747D552E000BF033A0868400741D51E
:103450004CE000BF043A086840073BD546E000BF97
:10346000053A0868400735D540E000BF063A0868CD
:1034700040072FD53AE000BF073A0868400729D532
:1034800034E000BF083A0868400723D52EE000BFAB
:10349000093A086840071DD528E000BF0A3A0868C5
:1034A000400717D522E000BF0B3A0868400711D546
:1034B0001CE000BF0C3A086840070BD516E000BFBF
:1034C0000D3A0868400705D510E000BF0E3A0868BD
:1034D00040070BD40868C0064FF0020058BF032015
:1034E00005E000BF0F3A08684007F3D50120012A24
:1034F00008BF04204A6822F002024A6070470000B8
:1035000042F2040040F22311C4F20200C4F26751F7
:10351000016048F6AB11CCF6EF5101607047000036
:1035200042F20C02C4F20202536843F001035360FA
:1035300001601068C0070DD11068400746D41068BC
:10354000C0064FF0020058BF0320516821F001016E
:10355000516070474FF480111068C00700F08B80F5
:103560001068C00738D01068C0073BD01068C0078B
:103570003ED01068C00741D01068C00744D0106822
:10358000C00747D01068C0074AD01068C0074DD0A8
:103590001068C00750D01068C00753D01068C0072B
:1035A00056D01068C00759D01068C0075CD01068AA
:1035B000C0075FD01068C00768D01039CCD1042094
:1035C000516821F001015160704700BF012051682E
:1035D00021F00101516070470139106840074DD555
:1035E00058E000BF02391068400747D552E000BFDD
:1035F00003391068400741D54CE000BF043910681A
:1036000040073BD546E000BF05391068400735D577
:1036100040E000BF0639106840072FD53AE000BFF0
:1036200007391068400729D534E000BF0839106811
:10363000400723D52EE000BF0939106840071DD58B
:1036400028E000BF0A391068400717D522E000BF04
:103650000B391068400711D51CE000BF0C39106809
:1036600040070BD516E000BF0D391068400705D59F
:1036700010E000BF0E39106840070BD41068C00678
:103680004FF0020058BF032005E000BF0F3910685B
:103690004007F3D50120012908BF0420516821F01B
:1036A000010151607047000070B540F60004C4F29B
:1036B000010404F580652846102104220223022615
:1036C00000F048F92046102104224FF48063C4F82A
:1036D00010644FF4806600F03DF928461021042262
:1036E00001236661012500F035F9204610210422EE
:1036F0004FF40073C4F810544FF4007500F02AF929
:1037000020461021042280236561802500F022F9E3
:103710002046102104224FF4807325614FF48075F8
:1037200000F018F9656170BD401A48BF404270470B
:1037300040F200424FF6FF71C0F20032C0E90012C1
:103740007047000080B58B790A88032B0ED0ABB987
:103750004979282922D0182928D1026108215FEA55
:10376000026C22F0FF0E28D140E000BF00215FEA8A
:10377000026C22F0FF0E20D138E000BF03F0080CED
:103780000B79C97903F00403634401F00301194480
:103790005FEA026C22F0FF0E0FD127E042610821A0
:1037A0005FEA026C22F0FF0E07D11FE001F00F016B
:1037B0005FEA026C22F0FF0E18D0D30740D19307C6
:1037C00047D453074FD4130757D4D3065FD4930677
:1037D00067D453066FD4BCF1000F07D5036823F0FC
:1037E00070430360036843EA01730360BEF1000F96
:1037F00025D0D30500F104006AD4930571D4530594
:103800007AD4130500F18380D30400F18B809304F4
:1038100000F19380530407D5036823F070630360BD
:10382000036843EA01630360120458BF80BD026865
:1038300022F070420260026842EA0171016080BDBC
:10384000036823F00F03036003680B4303609307CF
:10385000B7D5036823F0F0030360036843EA01135C
:1038600003605307AFD5036823F4706303600368F4
:1038700043EA012303601307A7D5036823F47043C9
:103880000360036843EA01330360D3069FD50368EE
:1038900023F470230360036843EA01430360930643
:1038A00097D5036823F470030360036843EA015368
:1038B000036053068FD5036823F0706303600368C9
:1038C00043EA01630360BCF1000F3FF587AF8DE76A
:1038D000036823F00F03036003680B430360930541
:1038E0008DD5036823F0F0030360036843EA0113F6
:1038F000036053057FF585AF036823F470630360AD
:10390000036843EA0123036013057FF57DAF036875
:1039100023F470430360036843EA01330360D30474
:103920007FF575AF036823F470230360036843EAEF
:103930000143036093047FF56DAF036823F47003C4
:103940000360036843EA0153036053047FF56CAFDF
:1039500062E700002DE9F04182B00746EFF31080E6
:1039600072B6E84640461C4615460E46FFF7E0FE96
:10397000384641468DF8066000948DF80550FFF7F3
:10398000E1FE62B602B0BDE8F0810000B0B5C0F360
:10399000072353FAA0F3C0F30742C3F120034FF00B
:1039A000FF3E2EFA03F40EFA02F340F2000E4FEA45
:1039B000106CC4F2010E5CF80E50234025EA03039C
:1039C000C0B29040002918BF03434CF80E30B0BD80
:1039D0002DE9F04F81B001F0E9FE4FF4A010012174
:1039E000FFF75CFA4EF20016CEF20006102086F8C1
:1039F00010034FF480303060FDF726FF40F2020ADA
:103A0000C0F2180A0AF580200121FFF747FA40F6B4
:103A10002800C4F200004FF6FF7141604A210160A6
:103A20000AF111000121FFF739FA4FF62C4945F24E
:103A3000000BCFF6FF79C4F2010B64204BF80900AC
:103A40004FF62840CFF6FF7095214BF8001020204C
:103A500086F818034FF08070306050460121FFF760
:103A60001DFA0920C0F21C000121FFF717FA40F6E9
:103A70000005C4F201052846032104220223FFF7B2
:103A800069FF2846032104222023FFF763FF4EF23B
:103A90001A45CEF20005002485F82C404020B06085
:103AA00000200121FEF7F8FA0AF113000121FFF7C7
:103AB000F5F945F20047C4F201074FF4FA704FF0F0
:103AC0004B08F862C7F828803868012140F0800070
:103AD00038602C704FF0806030600AF11200FFF700
:103AE000DDF94FF6FF7047F80900CBF82880DBF8C6
:103AF000000040F08000CBF80000FDF75BFF01B054
:103B0000BDE8F04F01F004BF70B540F29444C2F23A
:103B10000004206F40F624057E28C4F200052BD354
:103B200028687C280ED8B4F84000C0084A2809D874
:103B300040F21050C2F200000068B0F5FA7F01D2E6
:103B400070BD00BF40F20001C2F200012868B1F868
:103B50004E10B0EB510FF3D3E07E0130C1B26529B6
:103B6000E07609D301F0AEF940F21050C2F2000045
:103B70000021016070BD00BF40F20006C2F20006E5
:103B80002868327EB17DA4F84600EAB1D9B342F28A
:103B90000040012998BF0121C4F2000001390268E8
:103BA0005204CDD479B302685204C9D401292AD071
:103BB00002685204C4D4022925D002685204BFD43A
:103BC00004394A1CEBD11EE0E9B142F20040012960
:103BD00098BF0121C4F20000013906E002685204D6
:103BE00058BF70BD04394A1C0DD002685204A7D5D5
:103BF00049B102685204A3D5012904D002685204D5
:103C00009ED50229EAD101F05DF900202860B4F8C0
:103C10004210327DD14045F20C42C4F20102A4F8B8
:103C20004210906111625060106840F00100106015
:103C300070BD0000F0B581B040F27664C2F20004BD
:103C400047F60041C0F600012046B02201F0D4FB47
:103C5000607CA17C0138B0FA80F040F294474009C2
:103C6000C2F200077870481EE27CB0FA80F040098A
:103C7000012AB87004BF01207871207D617D013870
:103C8000B0FA80F040F200064009C2F200067070FF
:103C9000481EA27DB0FA80F04009B070501EB0FA04
:103CA00080F04009E37DF070207E042BA0F1080134
:103CB00028BF02232829B37116D8182826D2A0F1CC
:103CC0000C010B2933D900F0FC01082940D141F245
:103CD000707C0721102242F6E063CDF800C001F0AD
:103CE000DDF8F08735E000BF42F62C414FF47A60F2
:103CF000C4F20101B0870860607EA0F1320164293E
:103D000036D996207086552030874AE040F29A2CAA
:103D1000182190224FF47A63CDF800C001F0BEF86C
:103D20000146207EF187A0F10C010B29CBD84FF47E
:103D30007A6C0C2118224FF4FA53CDF800C001F030
:103D4000ADF80146207EF18700F0FC010829BED0C5
:103D5000F08F42F62C4281B2C4F201021160A6F843
:103D60004800A6F84000607EA0F132016429C8D85E
:103D70006421F28F01EB500144F6D3535143C1F259
:103D80006203A1FB0315192101EB90005043A0FB36
:103D90000301E8097086C80930870A2000EBD110BA
:103DA0007087A07E227F00EB8000142505EBC00009
:103DB000F083501E637FB0FA80F04009F870581EFF
:103DC000B0FA80F0E17E400938710520F17101F010
:103DD000E3FC6078002800F09F80A07F0B2888BF5C
:103DE000052001F0D9FCE07F94F820100138B0FAEA
:103DF00080F04009B87140F2EE2094F8212000EBE9
:103E0000410094F82230F08440F2D66000EB42008A
:103E1000308503F25E50708594F8230094F82410E6
:103E20007073481EB0FA80F094F82510400938727B
:103E300001F1FA0094F82610B085481EB0FA80F01F
:103E40004009787294F828000021421F142AF97161
:103E500098BF307394F82900411E092998BF7072E9
:103E600094F82A00411EC9B208291ED8B07200EB8E
:103E700080006FF00501A1EB4000C1B2C82928BF46
:103E80006FF03700617EF07251FA80F27286490855
:103E9000B6F8462051FA80F1318752FA80F1F28E5D
:103EA000A6F8461052FA80F0F08694F82B00A0F1A4
:103EB0004601462998BF707194F82C00411E622972
:103EC00003D8400030840120387394F82D00202559
:103ED000411E092998BF3072F08B81084A299CBF86
:103EE0000021F17348F21F51C5F2EB11A0FB011242
:103EF0004FF2F101CFF2F001A0FB0113F179520969
:103F0000B5FBF1F11B09B2FBF1F2B3FBF1F1A6F83D
:103F10004220A6F8441000E0F08B40F2E2454FF456
:103F2000967140F6B83240F6C413009500F0B6FF23
:103F300071783086002904BF0020B87001B0F0BD50
:103F400082B040F2944442F6004540F62406C2F2A4
:103F500000040220C4F20105C4F2000662B6E07457
:103F6000FFF736FD28460021012202F033F92846EA
:103F70000221012202F02EF928460421012202F03A
:103F800029F928460121012202F024F928460321BB
:103F9000012202F01FF9284605210122052702F01F
:103FA00019F9286840F001002860686C40F400406E
:103FB0006864686940F00100686144F60040C4F23A
:103FC0000100D0F8001840F2004541F00101C0F8AE
:103FD000001845F20C41C4F201018A68C4F20005E0
:103FE00042F001028A600A6822F001020A60D0F8F9
:103FF000001441F00101C0F80014D5F8001441F09C
:104000000101C5F8001456F8101C41F0010146F8F2
:10401000101CE774016841F001010160416941F041
:1040200001014161C16841F00101C160FDF74CFA35
:1040300028460021012202F0CDF8286840F0010056
:1040400028600620E074FFF7F5FD40F27660C2F2CA
:104050000000C17840F200080129C2F2000802D134
:1040600001795D294AD045F60151A0F8031046F2C6
:104070005451C6F66B31C0F8051043F26F31C2F2ED
:104080003201C0F8091043F24641C2F22001C0F8E3
:104090000D1098F80010A5784170617867790139A2
:1040A000B1FA81F149094174691EB1FA81F14909F6
:1040B0008174791E98F80120B1FA81F14909C1741F
:1040C000511E98F80230B1FA81F149090175591E63
:1040D00098F803C0B1FA81F149094175ACF10101C9
:1040E00098F80620B1FA81F14909C27547F60042F5
:1040F0008175C0F60002B02101F034FA607944F60F
:10410000D35200281CBFB8F83400A8F83200B8F821
:104110003E00B8F83610C1F262024143A1FB02131F
:10412000B8F8461067784143A1FB0212791E18BF08
:10413000012188F8191098F80B1098F8017001EB1C
:10414000D311A8F83610D109A8F83C00A8F84610F9
:10415000002FA8F8480004BF00206071607A072192
:10416000E174F0B14FF47A70A8F846000120A07015
:10417000002188F80F00B8F838006171A8F8011024
:1041800088F80310B8F83A103230A8F8380001F176
:104190003200B8F83210A8F83A0001F13200A8F85D
:1041A000320043F200054FF0000AC4F20005A4F803
:1041B0003AA0FDF79DFA4AF6AA2028600820E0748C
:1041C000FDF7F8FB01F04AF9207843F200010028DE
:1041D0001CBF0120E072C4F2000140F2105B092014
:1041E00001F574414FF47A79C2F2000B01910CE0B1
:1041F00042F60040C4F20100C0E90DAAC0F83CA09C
:10420000FDF768FE84F819A0E07C43F20001C4F2D7
:1042100000014AF6AA2201300A60C1B2C929E0743D
:10422000C0F08280B4F85C0040F6E44540F2011131
:104230006843C0F21001A0FB0112801A02EB50008B
:1042400098F81010C00A484348F21F51C5F2EB110C
:10425000A0FB0101B4F8580094F82420E38D801AE3
:10426000A4F8580080B248F2E802504343F23812F2
:10427000A2EB10304FF2CF32CCF63C7250FB02F082
:10428000C21002EBD07094F82320B4F85E70C3EB38
:10429000C3031930C2EBC2023B44A4F85A001044D5
:1042A000B4F84820DB08C00803FB05F740F2FF45DF
:1042B00084F82300C2EBC200C4F6EC7500EB511089
:1042C000A7FB0575C008A4F84800280A20860198B5
:1042D0000121E385FDF754FD207A18B3E07BB8F89F
:1042E0002C10B4F848204843904219D9608DA17E23
:1042F0004FF67C430130CFF6FF7382B211FB03917E
:10430000914260850EDAA4F83CA0FDF7E3FD00F0D1
:10431000D9FD84F819A0A4F83AA084F81DA001E002
:10432000A4F82AA084F813A0A278E17F012A84F8D7
:104330001BA008BF00290BD0E08F002A18BF00295E
:1043400026D1A086DBF80010002840F0498165E105
:10435000617A98F80D30E08F002909EB43012BD0EA
:10436000814280F0958098F819206778BA4240F031
:104370008D80677EA4F834A0002F00F08380012197
:104380006175A9EB4302824200F38680B6E000BF6C
:10439000B0F5836F48D398F81910627891423CD1F8
:1043A000B8F84E00B8F83020904229D8A07E38BB2B
:1043B0000020E08731E000BF81420BD3A9EB43022C
:1043C000824200F3CA80A9EB4301814240F2F780A8
:1043D00002E100BF98F8192063789A4240F0AB8060
:1043E000B8F84E00B8F83030984200F29380A07EC2
:1043F000002840F08F804FF47A70E0879BE000BF88
:10440000C1F1010088F819000120CBF800A0A075C7
:1044100000F058FDE08F84F810A098F81210C1EB5E
:104420004001A1F60101A186A0F1300189B2C908BD
:104430007C2922D8617898F81920C1F101039342B0
:1044400015D1B8F84E00B8F83020904204D8A07EBC
:1044500010B90020E0870AE00120CBF800A0A07589
:1044600088F8191000F02EFDE08F84F810A098F85D
:104470001210C1EB40013139A1863028C0F0A38071
:10448000AAE000BFC2F1010288F81920627D1AB3C8
:10449000A9EB4302824231DD617898F81970C1F1CD
:1044A0000105BD4208D1677E002F0EBF88F81910A4
:1044B00001216175A4F834A0617DF9B9002140F2B1
:1044C000FF732F27009700F0E9FC0146E08F98F872
:1044D0000D30A18612E000BF4FF4FA622F2340F2A4
:1044E000FF77009700F0DAFC0146E08F98F80D3076
:1044F000A186A9EB43028242CEDC00BFA9EB4301B7
:10450000814269D809EB4301814265D304F1150268
:104510005BE000BFC2F1010088F819000120CBF870
:1045200000A0A07500F0CEFC98F80D10E08F84F884
:1045300010A009EB41014FF4FA622F2340F2FF77FC
:10454000009700F0ABFC0146E08F98F80D30A18693
:10455000A9EB430282427FF736AF617898F81930B1
:10456000C1F101079F421AD1B8F84E00B8F83030B7
:10457000984205D8A07E18B94FF47A70E0870EE013
:104580000120CBF800A0A07588F8191000F09AFC63
:1045900098F80D10E08F84F810A0A9EB41020021DB
:1045A00040F2FF732F27009700F078FC0146E08F60
:1045B00098F80D30A186A9EB430181420CD809EB94
:1045C0004301814208D304F11002DBF800100020FF
:1045D000A086107022E000BFA08EDBF80010E8B1CA
:1045E000B1F57A7F88BF84F818A0652903D3C7285E
:1045F00098BF84F818A061799F2803D8002918BFB4
:1046000084F818A0A27B7AB10309182B98BF84F80C
:1046100018A098F8033083B922E000BF84F818A0EE
:104620006529E4D2E7E700BF95288CBF0A236423FD
:1046300088F8113098F8033093B1642598F8117018
:104640006A43237E01327A439A4209D2FDF742FC43
:1046500000F038FC6620A4F83CA0207673E000BF90
:1046600021B11D282AD8A4F83CA03BE0E17A00291A
:1046700068D02178002945D0D8E914732F2140F261
:10468000FF72009700F00AFC48F2007298F80710D9
:10469000C0F2933292FBF0F04908A28E90FBF1F049
:1046A0002E2A208536D840F26400C2F20000A4F819
:1046B0003CA0C0F800A0C4F864A044E01E2801D1CA
:1046C0001E200FE098F80C1001EB81018A00824255
:1046D00008D91E212F23A027009700F0DFFB0146F9
:1046E000A08EA18798F80C1001EB8101890081420E
:1046F00029D84FF4FA62A0234FF4FA67009700F02C
:10470000CDFB1FE0676E4EF200053846C4F2F94556
:1047100006E000BF676E4EF200053846C4F2FF4562
:10472000294602F0F8F8002818BF3D46284602F056
:1047300013FA0021A0873846C4F2402102F0DDF8C8
:1047400008B93020A087A07ED0B3A08F3128C0F058
:10475000BB80617F002900F0B780882800F2D880F4
:104760000120607600F0AEFBFDF7F8FBFDF720FBC3
:1047700098F8071041F65832B2FBF1F340F22A32B2
:10478000A08FB2FBF1F730217822009700F086FB72
:10479000A8F84A0080B2FEF721FCB8F84A004FF4AE
:1047A0001671B1FBF0F1B428A4F856108EBF4FF685
:1047B000FF704FF4B4714843A067E07C25E500BF6B
:1047C000A06F48F2A062C0F20102617E92FBF0F09D
:1047D0004CF6CD42484300EB4000400081B2CCF69D
:1047E000CC42A1FB021298F80F10A4F85600D00892
:1047F000A4F8600069B1B8F84210B8F84420B8F8DD
:104800004630B8F8487080B2009700F047FBA8F82F
:10481000400094F8230098F8051088420AD9B8F8A7
:10482000483001F114025B080127009700F036FBC5
:10483000A8F84000DBF80000B8F84E1064284FF0EC
:104840000C000DD3B1F5FA7F0AD8206F64214FF424
:10485000FA7204230C27009700F020FBB8F84E10E2
:10486000642938BF0220B8F81E1088F8160089089D
:10487000E0299CBF400088F81600A07D002800F0C9
:104880001581607E002800F0118100F01BFB43F2CF
:1048900000004FF20041C4F20000CFF6FF71415812
:1048A00098F8180001F48041002875D0002975D1CE
:1048B00094F82210013184F8221094F82110002974
:1048C00040F0F48076E000BFE07800283FF490AC40
:1048D000B8F83E0098F80910B8F83C2000EB410108
:1048E00013398BB25A43B2FBF0F2A4F84010801A8D
:1048F000013042F60041A4F8540080B2C4F2010134
:10490000C1E90D00C86300F03DFD0120607579E448
:10491000FDF74EFAA08FC8280CD95020A4F84EA05D
:10492000A8F84A00FEF75AFBB4F84E0000287FF4BE
:104930006BAC08E0B8F84A00FEF750FBB4F84E0044
:1049400000287FF461AC0120A4F81900A07542F2A0
:104950002830A8F84E002067CBF80400306020799A
:104960000A21002898F81500CBF8001084F815A04B
:1049700088F81C001CBFB8F83A00A8F83800FDF70A
:1049800063FD42F60041C4F20101486940F00100B4
:104990004861E07CFFF739BC002989D1217F0131D2
:1049A000CAB2032A217728BF84F822A094F82110E4
:1049B00000297BD194F8221080B398F81A00814224
:1049C00074D9012084F821003068A4F84600C6F8A4
:1049D00000A0B8F84E1001EB410111FA80F098F8F0
:1049E0001710C0F38F02B2FBF1F18208C1EBD000C7
:1049F000A4F8420080B2401AA8F84E20218700BFD8
:104A00003168814238D23168814235D23168814281
:104A100032D231688142F3D32EE000BF98F81B00F8
:104A2000814243D9012084F821003068A4F846006F
:104A3000C6F800A0B8F84E1001EB410111FA80F061
:104A400098F81710C0F38F02B2FBF1F18208C1EBA6
:104A5000D000A4F8420080B2401AA8F84E20218766
:104A60003168814208D23168814205D23168814281
:104A700002D231688142F3D3FDF7E6FCDBF8000097
:104A80002179627A0130114384F822A084F81CA0B5
:104A9000CBF800006ED0142808D3B8F84E00B0F55B
:104AA000FA6F03D884F816A0FEF748FC30684AF67F
:104AB000C9718842FFF4A8AB607E01287FF4A4ABE3
:104AC000207E0130207600F0FDF9A08F2F284FF0D6
:104AD0000100A07598BF84F819A0CBF800A0306839
:104AE000A4F84600C6F800A0B8F84E1001EB41014A
:104AF00011FA80F098F81710C0F38F02B2FBF1F1B1
:104B00008208C1EBD000A4F8420080B2401AA8F895
:104B10004E2021873168814208D23168814205D216
:104B20003168814202D231688142F3D3FDF78CFCB7
:104B3000DBF800002179627A0130114384F822A069
:104B400084F81CA0CBF800000AD01428FFF45CAB5A
:104B5000B8F84E00B0F5FA6F05D9FFF755BB00BFA6
:104B60001F28FFF451AB84F816A0FEF7E7FBE07CAA
:104B7000FFF74BBB1F2895D298E7000010B540F215
:104B8000665CC2F2000CDDF808E00C0A8CF802103A
:104B9000110A8CF80310190A8CF804208CF80510FF
:104BA0008CF806304FEA1E218CF808E04FF0000E1A
:104BB000072200238CF800008CF801408CF80710C5
:104BC0005840C3B282EA4304000658BF5C0082EA40
:104BD0004400230658BF600082EA4003040658BF21
:104BE000430082EA43001C0658BF580082EA400393
:104BF000040658BF430082EA43001C0658BF580011
:104C000082EA4003040658BF430082EA43001C06C0
:104C100058BF5800BEF1080F30D0C3B20CEB0E00E5
:104C200044788078634082EA4304190658BF5C00E8
:104C300082EA4401230658BF610082EA41030C0660
:104C400058BF4B0082EA43011C0658BF590082EA54
:104C500041030C0658BF4B0082EA43011C0658BFB3
:104C6000590082EA41040B0658BF4C0082EA440313
:104C70000EF1020E210658BF6300A1E78CF809006F
:104C800010BD0000F0B540F22045C2F20005A98831
:104C900011B10022AA805CE040F2AD41C2F20001F5
:104CA000097869B140F20C51C2F20001096847F677
:104CB000FF7221EA0202B2F5004F0BD1072244E055
:104CC00040F20C52C2F200024FF6FF71116007224F
:104CD0003BE000BF43F6FF7221EA0202B2F5804FCB
:104CE00002D1062231E000BF41F6FF7021EA000048
:104CF000B0F5005F02D1052227E000BF40F6FF704B
:104D000021EA0000B0F5805F02D104221DE000BF5F
:104D100040F2FF7021EA0000B0F5006F02D10322DB
:104D200013E000BF40F2FF3021EA0000B0F5806FD1
:104D300002D1022209E000BF40F2FF1021EA000088
:104D4000A0F50070B0FA80F04209114141EA422119
:104D5000EA6081EA111282EA112247F2F22002F09F
:104D60000F02C0F60000C1F3031442EA011241F33E
:104D70001323045D82F00F02C65C01F00F01A30251
:104D800010F801C002F00F0143EAC637415C47EA60
:104D90004C1343EA010E2A61C5F814E0012540F2E4
:104DA0002870612225EA1615C2F200005543C6F3A9
:104DB000C006456186EA95155543C7F340468561AF
:104DC00086EA95155543C7F30046C56186EA9515F1
:104DD0005543C7F3C036056286EA95155543C4F3BB
:104DE0000016456286EA95155543C4F3C00484EA6B
:104DF000951485625443C3F30035C46285EA941464
:104E00005443C3F3C025046385EA94145443C3F3A5
:104E1000802383EA941344635343CCF300148363E5
:104E200084EA93135343CCF3C007C36387EA931315
:104E30005343CEF3C017036487EA93135343CEF36F
:104E40008017436487EA93135343CEF34017836478
:104E500087EA93135343C1F30017C36487EA93139C
:104E60005343C1F3C007036587EA93135343C1F368
:104E70008007436587EA93135343C1F34007836573
:104E800087EA9313534301F0010181EA93115143DF
:104E9000016600210261C365C160F0BD80B5DDF827
:104EA00008C08842B8BF08469042C8BF1046A0EB71
:104EB000010EACEB03000EFB00F0511A90FBF1F079
:104EC000184480BD40F20040C4F20100016821F4A2
:104ED000002101604FF400214161704710B54EF68A
:104EE0000C5CCEF2000CDCF80030C3F3022E8EF026
:104EF0000704042C28BF0424BEF103034FF0FF3E37
:104F00000EFA04F438BF0023A14399400EFA03F3CC
:104F10009A431143B0F1FF3F4FEA011110DD4EF209
:104F20000012CEF20002831883F8001300F01F0174
:104F3000012303FA01F1400942F8201010BD00BF1F
:104F400000F00F006044017210BD00002DE9F04335
:104F500081B042F62848C4F201084FF47A60C8F8DC
:104F60000400EFF3108072B640F27050C2F20000FD
:104F7000007843F200094CF6CD447925C4F20009CB
:104F80004AF6AA27CCF6CC440A26C8E90300C8F89A
:104F9000140000BF023DA5FB04010809C9F8007018
:104FA000FDF790F806EB5500C8F800000A20FEF760
:104FB0002BF8022DEED8FCF78DFF002040F23E02C8
:104FC000C8F80000C2F2000240F2D8411288C2F2D2
:104FD00000010880C8F8042062B601B0BDE8F08383
:104FE0002DE9F04F81B043F200050320C4F2000523
:104FF000FDF768F840F2D84740F276644AF6AA28EE
:10500000C2F20007C2F200044FF00009002606E0D9
:10501000013609F1340009F10209AE2868D2C5F859
:10502000008004EB090090F834B00021BBF1FF0FC1
:105030003980EDD090F83500002849D04FF47A61DE
:10504000F72210FB021049F28061C0F29801B1FB17
:10505000F0FA1FFA8AF001F0B9FDB8462F4605466E
:10506000F0B2C0EBC0100BEB400001F097FD06461C
:105070000020C4F27A4029463D4647464AF6AA280F
:1050800001F05CFC314601F019FE01F065FD43F6CC
:105090000061C0F2490142F62843B1FBFAF1C4F2C3
:1050A00001030A221A6040F270525960C2F20002F3
:1050B0001278514344F6D352C1F26202A1FB0212AC
:1050C000110AC3E903115961FDF79EFF0026A0E70D
:1050D000F0B2C0EBC01042F628410BEB40000026B6
:1050E000C4F20101C1E903664E61FDF78DFF90E74F
:1050F000FCF7F0FE42F628420020C4F2010240F222
:105100003E011060C2F200010988516038804AF601
:10511000AA20286001B0BDE8F08F000010B542F66B
:105120002844C4F201044FF47A60606028202060B3
:1051300040F27050C2F200000078C4E903006061E0
:105140000220FCF7BFFF9620FDF75EFF43F2000050
:10515000C4F200004AF6AA21016050202060962087
:10516000FDF752FFFCF7B6FE002040F23E02206041
:10517000C2F2000240F2D8411288C2F20001088057
:10518000626010BD10B542F62844C4F201044FF429
:105190007A6060603220206040F27050C2F20000FD
:1051A0000078C4E9030060610220FCF78BFF9620C1
:1051B000FDF72AFF43F20000C4F200004AF6AA21DC
:1051C00001601E2020609620FDF71EFFFCF782FE86
:1051D000002040F23E022060C2F2000240F2D841BC
:1051E0001288C2F200010880626010BD10B5EFF3B2
:1051F000108072B642F62844C4F201044FF47A607B
:10520000606043F20000C4F200004AF6AA21016087
:105210005020206040F27050C2F200000078C4E9D3
:10522000030060610320FCF74DFF6420FDF7ECFEF6
:10523000462020606420FDF7E7FE282020606420DF
:10524000FDF7E2FEFCF746FE002040F23E02206041
:10525000C2F2000240F2D8411288C2F20001088076
:10526000626062B610BD000070B542F62844C4F218
:1052700001044FF47A606060EFF3108072B643F27D
:105280000005C4F200054AF6AA263C202E602060E4
:1052900040F27050C2F200000078C4E9030060617F
:1052A0000120FCF70FFF4B20FDF7AEFE50202060E1
:1052B0004B20FDF7A9FE5A2020604B202E60FDF701
:1052C000A3FEFCF707FE002040F23E022060C2F27F
:1052D000000240F2D8411288C2F2000108806260E8
:1052E00062B670BDB0B5EFF3108072B647F63040CD
:1052F000C0F60000007842F6284543F20004C4F2EC
:105300000105FF28C4F2000402D0FFF769FE2EE079
:105310004FF47A60686040F27050C2F2000000788A
:10532000C5E9030068610320FCF7CCFE3720286044
:10533000C820FDF769FE0520FCF7C4FE4AF6AA2046
:10534000206028202860C820FDF75EFE0620FCF7BC
:10535000B9FE19202860C820FDF756FEFCF7BAFDFB
:1053600040F2D8410020C2F200012860088040F2DB
:105370003E00C2F20000008868604AF6AA20206061
:1053800062B6B0BDB0B540F60004C4F201042046D8
:10539000102104224FF480634FF48065FEF7DAFA9F
:1053A0002046102104224FF4007365614FF400750C
:1053B000FEF7D0FA2046102104224FF48073656175
:1053C0004FF48075FEF7C6FA656104F580652846DE
:1053D000082104220223FEF7BDFA284608210422F0
:1053E0000123FEF7B7FA2046082104228023BDE8F6
:1053F000B040FEF7AFBA000070B5012A20DB531EA3
:10540000032B02F0030C01D2002211E022F0030E64
:10541000431C00228D5C9E188C1806F8015C657890
:105420009D54A57804327570E4789645B470F1D136
:10543000BCF1000F04D0535CBCF1010F835401D1C7
:1054400070BD00BF531C5E5CBCF1020FC65408BFA8
:1054500070BD0232515C815470BD000070B540F2E5
:105460000044C4F2000404F5843000210422102317
:105470000026FEF76FFA6C25C4F202052868286042
:10548000204600F025FF0120A0610B20206240F2A1
:105490005800C2F200000178A1624FF6FF71E1628C
:1054A000616941F00101616140F28841C2F200018D
:1054B0000E7004F134016662A96040F27451C2F2C8
:1054C0000001E96040686860E06840F40070E060F6
:1054D000206840F00100206040F68B10286070BD0D
:1054E000B0B540F20001C2F2000140F276600A78E5
:1054F000C2F20000427040F29442C2F200025478BC
:10550000957852794B78013AB2FA82F25209C27414
:105510005A1E91F802C0B2FA82F252090275ACF139
:10552000010291F803E0013CB2FA82F2B4FA84F489
:10553000520964094275AEF1010244746C1EB2FA5C
:1055400082F2B4FA84F452098B796409827547F6C1
:1055500000428474C0F60002B021C375BDE8B040BB
:10556000AFF300802DE9F04F03AF85B08346C81735
:1055700001EB9070841020F00300073020F007004A
:105580009246ADEB00088946C54640462146FBF7EA
:105590007FFEB9F1040F6FDB601E032804F0030CDB
:1055A00047F8204C02D200211DE000BF24F0030E7A
:1055B00008F10809002000210BEB00045BF80060F3
:1055C000A3686568E468043108EB000248F80060ED
:1055D00009EB000649F800308E4500F1100046F84E
:1055E000045CD460E8D157F8204CBCF1000F43D0E4
:1055F0008800831CC21C1BF803301BF802200130FA
:105600001B041BF8000043EA02621BF8213042EA47
:1056100000201844BCF1010F48F821002CD0481C90
:105620008200961CD31C1BF806601BF80330013265
:1056300036041BF8022046EA03631BF8206043EAA5
:1056400002223244BCF1020F48F8202014D0881CFA
:1056500081008B1CCA1C1BF803301BF8022001318F
:105660001B041BF8011043EA02621BF8203042EAD7
:105670000121194448F8201047F8144CFDF740FF69
:105680005FEA8A5002D15046FDF772FE002047F8CB
:10569000180C47F81C0C57F81C0C57F8141C8842BF
:1056A00018D200BF57F81C0C57F81C1C0AEB8000DE
:1056B00058F82110FDF734FF0320FDF749FE57F895
:1056C0001C0C013047F81C0C57F81C0C57F8141C24
:1056D0008842E7D3A7F10C04A546BDE8F04FFDF7DB
:1056E0003DBE0000B0B56C25C4F20205286840F24A
:1056F000004440F01000C4F200042860204600F08E
:10570000E7FD6020A0610320206240F28840C2F2E1
:10571000000041780422A1625F21E1620121017051
:105720006069082140F00100606104F13400A86064
:1057300040F22870C2F20000E8601A206860286811
:10574000102340F002002860286840F0080028601C
:10575000286840F001002860E06840F40070E060D4
:10576000606C40F400406064206840F0010504F57E
:1057700084302560BDE8B040FEF7ECB840F2E400AC
:10578000C2F2000000784421C4F2020148600868B7
:1057900040F00100086070470B2828BF0B2040F242
:1057A00070514000C2F200010870704780B542F2AB
:1057B0000000C4F202004FF4AA710160FDF7BEFBC5
:1057C00000200121FDF78AFA0120FDF759FB01288D
:1057D000FAD100202321FDF789FB02200121FDF7EA
:1057E0007DFA00BF1920FDF74BFB0128FAD10020FC
:1057F000FDF73EFA0420FDF757FA0420FDF746FABC
:105800000120FDF75FFA0220FDF7D6FBFDF7DEFB76
:105810000228FBD10020FDF755FABDE8804000F0DA
:1058200001B80000B0B541F2040441F20025C4F211
:105830000204C0F27A05FDF7C9FB02280CD000284B
:1058400050D1206D80054DD5E06A800144BF46F6F9
:105850000045C0F2DC2545E02068A16AC0F30040A5
:10586000002919D421682268C1F38341C2F341722F
:1058700013010133002A1A4608BF02220F2908BF6C
:105880001A46002802EB010020D140F60011C0F2B8
:105890003D0100FB01F525E0A26AA36AC2F3031CE7
:1058A000A26A40F60011C0F23D01C3F308230028AC
:1058B00002F0070003D02268920358BF29465943DB
:1058C0000CFA00F0B1FBF0F50CE000BF2168890391
:1058D00002D4454306E000BF40F60011C0F23D018E
:1058E00000FB01F540F2B830C2F20000056021680B
:1058F00003A2C1F30311515C25FA01F10160B0BDAF
:10590000000000000000000001020304060708096F
:1059100070B588B00324C0F2180404F10B00012113
:10592000FDF7BCFA20460121FDF7B8FA4FF4A010AC
:105930000121FDF7B3FA40F20040C0F2081043F62F
:10594000000407904020C4F201040690A4F53050F2
:1059500006A9FDF7F7FE4425C4F202052846FDF727
:10596000BFFC01AE3046FDF75FFC40F2E400C2F23E
:10597000000000783146ADF80E001020ADF80C00A4
:1059800040F26650C2F20000029043F60400C4F2F6
:10599000010001904FF4807004900020ADF81400D5
:1059A0002846FDF757FC2868012140F002002860D6
:1059B000286840F00800286040F20140C2F610401C
:1059C000FDF7E4FF20464FF4E1310022002300F010
:1059D000A1FD2046012100F0F5FD2046012100F047
:1059E000DDFD2046012100F0E3FD2046012100F00D
:1059F0007DFD2046012100F083FD0E2003210022C1
:105A0000FFF76CFA08B070BD2DE9F04F81B040F29D
:105A1000944AC2F2000ABAF82C00013081B2B1F502
:105A20007A7FAAF82C0009D99AF80A1031B9FFF741
:105A300059FCBAF82C0001218AF80A1080B242F20F
:105A40001171884247D3BAF83040204601F0BEF8C1
:105A50000021C4F2B43100F071FFDAF86C10024694
:105A60000846114600F094FE40F22341C2F20001C4
:105A70000A78CAF86C00032A0AD0022A16D0012A32
:105A800026D19AF82300022200F500701AE000BF28
:105A9000BAF8480048F21F52C5F2EB12A0FB02020E
:105AA000D008042262F31F2001220BE048F21F52AB
:105AB000E0B2C5F2EB12A0FB02024FF4C06040EA74
:105AC0001210032240F22443C2F2000318800A702D
:105AD0000020AAF82C009AF81D0000284AD19AF854
:105AE0001E00002846D0BAF8340018B10020AAF8E9
:105AF0004A003FE0BAF84A0042F21172013081B226
:105B00009142AAF84A0035D3BAF83A001F2825D3A3
:105B10009AF80F0001218AF81D1018BB9AF80800A6
:105B200000B3BAF848004DF2B9324108CBF21F1267
:105B3000A1FB0212D109B0F5B97F8AF80F1013D377
:105B4000002400BFFFF752FB6420FDF75DFA9AF8CE
:105B50000F0001348442F5D306E000BF00208AF82C
:105B60001E00C4E7FFF742FB9AF8200010B900209E
:105B70008AF809009AF80600A8B140F20001BAF8C4
:105B80004C00C2F200010979013082B201EB8101BF
:105B9000B2EB410FAAF84C0005D901208AF8140095
:105BA0000020AAF84C009AF81A0040F21059002878
:105BB000C2F2000940F05A829AF81D004FF02F08F7
:105BC000002800F010819AF80520BAF83C0002EB9A
:105BD000820108EB0111814200F205819AF8190057
:105BE00050BBFCF777F99AF81600C8B99AF8190073
:105BF000A0B9FCF729FC40F20000C2F2000042F21A
:105C00001071A0F84E1040F22440C4F2000041F29E
:105C10008831C0F8001401208AF81900FDF78EFBC6
:105C200001208AF8190040F20000C2F20000408E04
:105C30009AF80520AAF8320040F2000BC2F2000BDD
:105C4000BAF83C00BBF83830BBF83E508921002A36
:105C500040F2FF7208BF2F210095FFF71FF904469D
:105C6000BAF82C004CF6CD41CCF6CC41484349F66D
:105C700099114FEA7000C1F699118842AAF8404084
:105C800000F2AA809AF80C009AF81970002818BF40
:105C9000002F4AD0BAF83000BBF820106FF0630232
:105CA00001FB020140F26402C2F20002106CD2E970
:105CB0000BCE956B431803FB0E53956CD2F834E072
:105CC000AB42C8BF2B466D42AB42B8BF2B460D1A44
:105CD0000EFB0530D66C0CFB010091620EFB05F546
:105CE000B042C8BF30467642B042B8BF3046C2E983
:105CF0000E35C2E9101000F051FF44F20001C4F269
:105D00001C6100F01BFE00F027FFBBF82E10081AE4
:105D1000BBF8381002B28A42B8BF084601B2A2B23C
:105D20008A42B8BF2046ABF82E00002F54D09AF814
:105D30000400002850D040F26402BBF84E00BBF8CB
:105D40002210C2F20002966E411AD2E91503156EB6
:105D5000741804FB0353156FD46DAB42C8BF2B46B8
:105D60006D428E1BAB42B8BF2B4604FB0635116556
:105D700000FB0150556F6643A842C8BF28466D42DC
:105D8000A842B8BF2846C2E91836C2E91A1000F086
:105D900005FF44F20001C4F21C6100F0CFFDDAF807
:105DA000681002460846114600F0F2FC0021C4F2D9
:105DB0001631044600F09AFD00281CBF0024C4F2EE
:105DC000163420460021CAF86840002400F08EFDF9
:105DD000002808BFCAF868409AF80900002804BFE4
:105DE00000208AF815009AF80500BAF83C1000EB7C
:105DF000800008EB0010884247D99AF8110060B182
:105E0000012803D1FFF7BEF99AF81100022808BF54
:105E1000FFF784F900208AF8110040F20004C2F272
:105E200000046078002800F08F809AF8190000289C
:105E300000F0A080207FA18CC0EB001001EB80005F
:105E4000A0F13C010AB2B2F5B47FA8BFA0F5D271AF
:105E500001F1770002B2AAF84E10B2F5B47FA8BFE4
:105E6000A1F1F100AAF8500001F1EF0002B2B2F581
:105E7000B47F9AF80520A8BFA1F17900012AAAF8F9
:105E8000520004BF01208AF81A009AF81560002E0B
:105E900040F09B809AF80410D9F80000142222FAEE
:105EA00001F1BAF8405088420FD240F20000C2F22D
:105EB0000000418E8D423CBFAAF840100D46C08EB6
:105EC000854284BFAAF84000054640F20008C2F2AD
:105ED0000008B8F84000854284BFAAF84000054693
:105EE0009AF80C0030B1B8F92E008542C4BF85B2D3
:105EF000AAF84050DAF868400021204600F004FD7E
:105F000028B9204600F028FE0544AAF8405098F829
:105F10000E00002859D0DAF870101E20B1F5FA7F73
:105F200088BF0A20BAF83210AAB2531A834288F8FE
:105F3000130041DDB8F84E200844B2F5FA7FAAF804
:105F400040003FD901203EE09AF8191000200029B6
:105F5000AAF8400040F002819AF803200121002AAB
:105F60008AF81610C9F8000000F0F280FDF79CFBDB
:105F7000F4E000BF01208AF816009AF8030000251B
:105F80000028AAF84050C9F800508AF81C5000F0C8
:105F9000D9809AF8050000287FF44CAFE08F617A31
:105FA00000EB41001338AAF84000FFF7EBF901209D
:105FB0008AF815003EE700BF8A1A8242C4BF081A59
:105FC000AAF84000002088F814009AF81D109AF8EA
:105FD0001900002918BF00280ED11EB340F200029C
:105FE000C2F20002BAF84010908FD28F00FB01F38A
:105FF000B3FBF2F3D21A2AE0BAF83C103029ECD302
:1060000040F20004C2F20004A078B8B1E68FB4F800
:106010004E0073086021C8220096FEF73FFFA0875C
:106020000DE000BF642100FB01F240F20000C2F26B
:106030000000BAF84010808F0AE000BFA08FBAF8C5
:10604000401080B2E28F00FB01F3B3FBF2F20132A9
:10605000AAF8321042F63441C4F20101AAF85420E1
:1060600041F8080C90B2C1E900008860DAF87800C5
:1060700045F25651C5F255519AF8122050FB01F0E5
:1060800000EBD071CAF870104AB3D9F800000B28A1
:1060900025D3D9F80400FDF747FBDAF870100A0998
:1060A0007C2A17D84A08904214D99AF80D2000206B
:1060B00001328AF80D2040F20002C2F20002528E34
:1060C000C9F800008AF8190001208AF81600500863
:1060D000AAF8320000208AF81200C9F804109AF8D1
:1060E0001400B8B1DAF86C009AF82340BAF84850B6
:1060F000BAF8306000F030FDBAF85670034620461A
:10610000294632460097FEF739FDFFF737FB00209E
:106110008AF81400BAF8440040F6C412411C9AF8F8
:106120002000AAF8441010FB022288B2824206D254
:106130009AF81D1081BB46F2A91188422CD201B0F9
:10614000BDE8F08FFBF7C6FEAAF8405072E600BF2C
:106150009AF81500002808BFFBF7BCFE9AF8090062
:106160009AF81560002818BF002E3FF490AEBAF8D8
:106170003E104FF47A70FDF7D7FA00F57A7081B2CD
:10618000B1F5FA6FAAF8400002D1FDF78DFA7CE66E
:10619000FFF7F8F879E600BFFBF79CFE42F63441C2
:1061A0000020C4F20101AAF81D00CAF83A000860F4
:1061B0004860886040F22441C4F2000148600860F1
:1061C00040F27450C2F200004FF48071FBF760F8A7
:1061D000FBF748FC062988BF7047DFE801F0050F90
:1061E00019232D37410000BF50F8203F02F0010174
:1061F00023F0010211430160704700BF50F8203FB7
:10620000042101EA820123F0040211430160704776
:1062100050F8203F102101EA021123F0100211432F
:106220000160704750F8203F402101EA821123F0BD
:10623000400211430160704750F8203F02F0010115
:10624000090223F4807211430160704750F8203F27
:1062500002F00101890223F480621143016070475A
:1062600050F8203F02F00101090323F4805211434A
:1062700001607047062988BF7047DFE801F0051EFE
:10628000091E0D1E150000BF50F8183F06E000BFA4
:1062900050F8183F0AE000BF50F81C3F082101EAFF
:1062A000C20123F0080206E050F81C3F02F0010191
:1062B000C90223F40062114301607047026801F0D3
:1062C000010122F0800242EAC11101607047000022
:1062D00010B542F6FF31C4F20101884212DC40F2EF
:1062E000FF71C4F20001884224DCB0F1804F43D03A
:1062F00040F20041C4F20001884253D10124C0F2AF
:10630000100444E044F6FF71C4F201010B248842FA
:10631000C0F20C0420DC42F60041C4F201018842C4
:1063200035D044F60041C4F2010188423AD1083424
:106330002DE000BF40F60001C4F2000188421FD0EA
:1063400040F60041C4F2000188422BD10120C0F286
:106350001000841C1BE000BF45F20001C4F20101E3
:10636000884213D045F20041C4F20101884218BFAF
:1063700010BD0A340BE000BF4FF4801407E000BFEB
:106380000120C0F21000441C01E000BF0934204687
:106390000121FCF797FD20460021BDE81040FCF7E5
:1063A00091BD00BF10BD0000B0B540F2B144C2F2D3
:1063B000000440F274602178C2F2000000780029E5
:1063C00018BF00280ED140F2B241C2F20001097894
:1063D000012911D000294ED1FCF73EFEBDE8B040A6
:1063E000FFF73CB840F28840C2F20000007898B154
:1063F000BDE8B040FFF732B8B0B140F28840C2F219
:1064000000000078C0B3FEF73DFCFCF7DBF8BDE808
:10641000B040FFF723B800BFFFF764F9FEF732FC86
:10642000BDE8B040FCF7CEB840F2B340C2F2000085
:106430000078012803D1FCF7C5F8FFF70FF840F208
:10644000B440C2F200000078012812D1FCF716FB1C
:1064500040F22040C4F20000016821F00201016016
:10646000FEF7FCFF6C20C4F20200016841F0040159
:106470000160207820B1B0BDBDE8B040FFF732B96F
:1064800040F2C844C2F20004208840F27845C2F2CB
:10649000000548B9697839B940F2CE40C2F200002F
:1064A000018801310180B0BD40F2CE4140F2DD53A0
:1064B000C2F20001002298420A8038BFB0BD29898B
:1064C000FDF732F92A78E97801323228C8BF002274
:1064D000D0B233282A7005D321B9FEF737FD4FF427
:1064E0008070288020882881B0BD0000426901F0BA
:1064F000010122F0800242EAC111416170470000AF
:10650000C26801F0010122F4005242EA4131C16047
:10651000704700002DE9F04186B001AD04462846E1
:10652000984616460F46FCF71BFC43F6000105F1A2
:106530000C00C4F201018C4208BF05F1080000689C
:106540004CF6CD4100EB80004000B0FBF7F0CCF6FC
:10655000CC41A0FB0112D10801EB8103A0EB430069
:106560000428A0684FF0010388BF03EBD201C1EA01
:106570000000A060E06806F0010120F4805040EACD
:106580000130E060206908F0030120F4405040EA47
:106590000130206106B0BDE8F0810000C26801F062
:1065A000010122F0040242EA8101C160704700004B
:1065B000426901F0010122F0080242EAC101416191
:1065C00070470000C26801F0010122F0080242EAAF
:1065D000C101C160704700001CF0700F08BF0A467F
:1065E0000FB403B42DE90C50FAF77CFEBDE80C5053
:1065F000024603BC11680CF0405030EA814318BFDA
:106600004CF0804C4FEA4C034FEAD36323EA11234A
:1066100010EA814F18BF23F0100341EA030101F093
:10662000E0734CEA030C11600CF00F030A2B1DBF42
:10663000082B0CF070034CEAC30C4FF4003304BF7A
:1066400033EA0C034CF4400C1CF0005F14D11CF036
:10665000805F0BD11CF0804F31D11CF0006F12D144
:1066600011F4807F0FBC47D000F0F7BD11F4806FAC
:106670000FBC2BD000F0F1BD11F4006F0FBC08BFB0
:10668000704700F0EABD11F4007F0FBC40F0E585D3
:106690001CF0400F1EBF4FF0004040F0010070475B
:1066A0001CF0100F14BF81EA030242400CF00F00EF
:1066B0000A2808BF4FF0FF324FF000030FE011F43B
:1066C000805F0FBC08BF704700F0C7BD2CF0805C36
:1066D0001CF0800F14BF01F0004200F0004202F0F5
:1066E00000421CF0100F1DBF0FF28C0003C81143B5
:1066F000234808BF104370471CF0400F40F028802B
:106700001CF4404F1BD01CF4004F1CBF1946104610
:106710000CF4807218BF8CEA520C1CF0800F0CBF76
:1067200040F4800041F400218CEADC0313F0100FE8
:106730001CBF2CF00F0C4CF0080C00F035BD1CF009
:10674000100F1ABF0FA393E80300104800F02CBDF0
:106750001CF0800F14BF01F0004200F000421CF05A
:10676000100F1BBF07A393E803000848114308BF9D
:10677000104300F019BD00BF000000000000F07FD2
:106780000000807F000000000000F87F0000C07F54
:1067900080EA400281EA410312F0FE4F18BF13F075
:1067A000FE4F00F04E8090EA010F48BF81F000419B
:1067B00000F1D683421A3CBF801A89184FEAD052A2
:1067C000A2EBD1534FF0004C4CEA00204CEA0121DF
:1067D00021FA03FC10EB0C0C22D202F1FF325FEA2B
:1067E0001C2040EBC25038BF70471CF07F0F4FEAAF
:1067F000400C18BFBCF17F4F38BF7047C3F1200376
:10680000994008BF20F00100BCF17F4F38BF7047AE
:10681000A0F1C0404FF0010C4CF0805CFFF7DCBEF3
:106820004FEA3C00000A40EBC25028BF1CF0FF0FAB
:106830004FEA400CE2D018BFBCF17F4F38BF704721
:10684000E6E74FF07F4C3CEA400218BF3CEA4102C9
:1068500036D090EA010F48BF81F0004100F1EC838F
:10686000421A3CBF801A89184FEAD052A2EBD1538A
:10687000090219D04FEA002012F0FF0F1CBF40F0B0
:1068800000405B1EA4D108444FEA102040EAC250E9
:1068900010F4000F18BF70474FF0010200F05CBC0D
:1068A0005FEA400C08BF00205FEA026C18BF704727
:1068B00030F0004C08BF70474FF0010200F04CBCB4
:1068C00010B500F08FFA00BF64FBBE3E010000046B
:1068D00010B500F011F90CBF0120002010BD10B55B
:1068E00000F00AF914BF0120002010BD10B500F01F
:1068F00081F98CBF0120002010BD10B500F07AF99D
:106900002CBF0120002010BD10B500F0A5F994BFE8
:106910000120002010BD10B500F09EF934BF012009
:10692000002010BD401058BFC0F14040491058BF72
:10693000C1F140418142EFF3008070474FF47F0C7A
:106940001CEAD0121EBF1CEAD11392EA0C0F93EA84
:106950000C0F00F0958090EA010F48BF42F480725E
:1069600040F4000C41F400002CF07F4120F07F4007
:1069700000B5A2EB030281420FF21E1CACEB504E9D
:106980009EF800E0C0F100004FEA4E0E00FB0EFC46
:1069900038BF49004FEA2C1C0CFB0EF34FEACE1E09
:1069A0000EEB635E4FEA112C0EFB0CFC4FEAC1218B
:1069B0004FEA1C5300FB031102F5FA024FEA112CB7
:1069C0000EFB0CFC4FEA01314FEADC4C00FB0C11D2
:1069D00042EB2242C14228BF09184CEB03335DF859
:1069E00004EB490018BF11EB000143EBC250B2F5B4
:1069F0007C0F38BF704731D512F0F00F08BF7047D9
:106A000000F1C0400A0018BF4FF0804248BF4FF06D
:106A1000404242F0040200F032BB00818283848550
:106A2000868788898B8C8D8E8F9192939596979976
:106A30009A9C9D9FA0A2A3A5A7A8AAACAEB0B2B3F2
:106A4000B5B7B9BCBEC0C2C5C7C9CCCED1D4D7D9E1
:106A5000DCDFE2E6E9ECF0F3F7FAFE004FEA400C87
:106A60000CF1807CBCF17E4F28BF7047A0F1C04084
:106A7000DFF880C0094218BF4CF0804CFFF7ACBD76
:106A80000CEAD11390EA010F48BF42F480726245CC
:106A900038BF634511D25FEA410C22D05FEA400C57
:106AA00004BFD00570470FF2070C00F016BA4FEA8A
:106AB000102C4FEA112061465AE710B500F092F908
:106AC000097EFC3E0400000400F005B880EA0100E5
:106AD00000F00040704780EA010000F0004000F044
